:020000040800F2
:10000000D00E00207D0100083D210008850E00086B
:1000100000000000000000000000000000000000E0
:100020000000000000000000000000003522000871
:100030000000000000000000ED2100083722000849
:100040008F010008000000008F0100088F010008E8
:100050008F0100088F0100088F0100088F01000840
:1000600000000000110E0008150E0008F90D000830
:100070003D0D000815230008412300080000000082
:100080008F01000800000000000000008F01000840
:10009000000000008F010008F52200088F01000811
:1000A000D10E00088F0100088F010008A12300086D
:1000B0008F010008000000000000000000000000A8
:1000C00000F002F800F04BF80CA030C808382418F3
:1000D0002D18671EA246AB4654465D46AC4201D180
:1000E00000F03DF87E460F3EB6460FCC0126334267
:1000F00000D0FB1A3343A246AB46184774330000C6
:1001000094330000103A02D378C878C1FAD8520765
:1001100001D330C830C101D504680C6070470000BD
:100120000023002400250026103A01D378C1FBD813
:10013000520700D330C100D50B6070471FB500983F
:10014000019900F0A0FA00F067FD040000200021F2
:1001500002F0EEFE401C60601FBD10B510BD00F047
:10016000FDFC1146FFF7EAFF02F0D4FA00F01EFD95
:1001700003B4FFF7F2FF03BC02F0AEF90748804773
:1001800007480047FEE7FEE7FEE7FEE7FEE7FEE77B
:1001900004480549054A064B70470000D92200086B
:1001A000C1000008D0020020D00E0020D0060020A0
:1001B000D0060020704770B5064600F047FA056883
:1001C00030460B30C408E400B44201D8002070BDB2
:1001D00068682A46002818D00168A14211D30B464E
:1001E000214608318B4208D3436801194B600368EC
:1001F0001B1B0B605160046001E041685160001DF1
:1002000070BD024640680028E6D12146284600F02D
:1002100025FA0028DCD170BD70B50446051F00F03A
:1002200015FA0068002C1AD0446801E02046646882
:10023000002C01D0AC42F9D301680A18AA4204D1BB
:100240002A6805468918016000E045602868411960
:10025000A14205D16168696021684018286070BDBD
:100260006C6070BD4343514330B55C18010C130CF6
:100270000D4692B25D4380B251432C190546554359
:100280000A0C09044D1962415843010C000440193D
:10029000514130BD0FB400B58DB010A909900B903D
:1002A0000020C04300910A9000200C900748784439
:1002B0000690074878446A4607900F9909A800F00D
:1002C0002BFA0DB008BC04B0184700008B040000E6
:1002D000A5040000FFB51D460027FF4383B05C68FE
:1002E000002001909E68A96904987F1C88470090AF
:1002F000296A88470028F6D10098401C0CD00320BA
:1003000040028443002E19DD600614D500982B2886
:1003100009D02D280FD103E00020C04307B0F0BD65
:10032000012080020443A96904987F1C8847761E37
:10033000002E009002DD0098302803D00598002898
:1003400025D035E00120A96940020443761E0498B7
:100350007F1C8847002E009003DD782805D05828A0
:1003600003D00598002810D022E00598002801D07D
:1003700010281DD10120A96940028443761E0498EB
:100380007F1C88470090102002E0082000E00A202F
:1003900005900DE00121059A49020C430199761E52
:1003A000514308180190A96904987F1C8847009060
:1003B000002E05DD0599009800F099F90028E9DA8A
:1003C000E96904988847A00502D40120C043A5E745
:1003D000E00722D1600611D56005019800D54042A2
:1003E00029680A1D2A600968220501D5087014E0F1
:1003F000220701D5088010E008600EE02868011D82
:1004000029600068210502D50199017005E02107E6
:10041000019901D5018000E0016038467EE70000C7
:1004200010B5044603E002F071F9401C08D02078B2
:100430000549641C0028F6D10A2002F067F910BDB6
:100440000020C04310BD00007001002001E004C086
:10045000091F0429FBD28B0701D50280801CC90724
:1004600000D00270704700290BD0C30702D0027081
:10047000401C491E022904D3830702D50280801C38
:10048000891EE3E70022EEE70022DFE700220309EE
:100490008B422CD3030A8B4211D300239C464EE09F
:1004A00003460B433CD4002243088B4231D303095B
:1004B0008B421CD3030A8B4201D394463FE0C3090D
:1004C0008B4201D3CB01C01A524183098B4201D325
:1004D0008B01C01A524143098B4201D34B01C01A10
:1004E000524103098B4201D30B01C01A5241C30888
:1004F0008B4201D3CB00C01A524183088B4201D3F7
:100500008B00C01A524143088B4201D34B00C01AE2
:100510005241411A00D201465241104670475DE0F7
:10052000CA0F00D04942031000D3404253409C46BA
:10053000002203098B422DD3030A8B4212D3890177
:10054000FC2212BA030A8B420CD3890192118B420E
:1005500008D3890192118B4204D389013AD09211B8
:1005600000E08909C3098B4201D3CB01C01A524173
:1005700083098B4201D38B01C01A524143098B423C
:1005800001D34B01C01A524103098B4201D30B0125
:10059000C01A5241C3088B4201D3CB00C01A52414A
:1005A00083088B4201D38B00C01A5241D9D2430831
:1005B0008B4201D34B00C01A5241411A00D201466E
:1005C0005241104663465B1001D34042002B00D5D8
:1005D0004942704763465B1000D3404201B505496C
:1005E000002802DC491C084000E00846C046C0461E
:1005F00002BD00BFFFFFFF7F70477047704710B517
:1006000001469E240002CA15A307002A02D01843FF
:10061000002A04DBA21A002A0CDDD04010BD12060D
:10062000120E01D140004008A21A03D4D04040422B
:100630000028F3DDFF2248001206904201D9002075
:1006400010BDC817C043584010BD704700487047E0
:1006500010010020704770477047704738B5044656
:100660000A4600206946C046C046002805D002461A
:100670002046009900F088F8012038BD10B501200F
:1006800000F066FA10BDF8B5C046C0460546002029
:100690000C461020C0460646A819A0420DD9324685
:1006A00069460020C046C046070001D100F050FA5C
:1006B0000098A04200D00546C419FFF7C7FFF61DF9
:1006C00007460560F008C0004619284600F008F803
:1006D000B44204D031463868A21B00F055F8F8BD8A
:1006E00000210160416080607047102070473A2807
:1006F00000D23038202302469A43412A01D31046C3
:100700003738884201D30020C0437047026851182F
:10071000137801601846704710B5D16005497944D7
:10072000516105497944116200211161114600F0BF
:100730004FF810BDEBFFFFFF950000004268002A54
:1007400008D001680B78491C002B03D0521E06C04C
:10075000184670470121C160881E70474268002A10
:100760000BD0C3680168002B07D183688B4204D08B
:10077000491E521C06C0002070470020C04370472D
:10078000004870470801002010B50346406801E0AA
:1007900003464068002801D08842F9D31868C3187E
:1007A0008B4206D0CB1CD808C000001D411A521A3B
:1007B0000146081D0A60FFF72FFD10BD10B5044665
:1007C00000F0ECF90068005DC007C00F10BD00002C
:1007D000F3B50C468FB000200C90012000260E903F
:1007E00008460C3003906269039801219047051E6A
:1007F0002ED0252D2DD0216A8847002818D0626977
:10080000039801219047216A88470028F7D162693F
:10081000411E0398904700E0761CA1690F98884715
:10082000216A88470028F7D1E1690F988847DAE7FD
:10083000A1690F988847A842074601D1761CD2E7E4
:10084000E1690F9888477F1C02D10C98002877D067
:100850006BE16269039800273D46394690472A2894
:100860000CD16269039801219047012506E00A2115
:100870004F433F18303FEBD4102005436269039883
:1008800001219047014630390A2903D2AC498F42F1
:10089000DEDCECE7E90600D4AA4F6C280AD04C282D
:1008A00010D0682824D06A282ED074280CD07A283A
:1008B0000AD00DE062690398012190476C2823D08B
:1008C00004211CE020200543626903980121904720
:1008D000A760652865604FD026DC582839D01ADC1F
:1008E000452849D012DC252834D04128B0D143E036
:1008F0006269039801219047682802D008210D43BE
:10090000E6E70120C002DEE70220DCE7462833D01C
:1009100047289DD130E05B2870D061282CD0632817
:100920006CD0642894D161E06F284FD009DC662830
:1009300022D0672820D0692826D06E2817D12EE033
:10094000EFE070284DD073286FD075284ED07828EE
:100950000DD154E0A1690F9888472528054600D19C
:100960006CE7E1690F9888476D1C00D16DE7DCE00A
:100970000A224CE00A2252E0012023466A460F99DF
:10098000C043C046C046C5E0402128462346084330
:100990006060A80701D5002239E000223FE0E807A7
:1009A00000D020E72068011D21600068290501D5DD
:1009B000067018E7290701D5068014E7A90703D5B3
:1009C000F117066041600EE706600CE740212846FB
:1009D000234608436060A80701D5082217E00822D3
:1009E0001DE0594928460840606016E0402128462D
:1009F000234608436060A807BCD5B9E715E040214D
:100A0000284608436060A80707D523461022012026
:100A10000F99C043C046C0467CE010222346012007
:100A20000F99C043FFF756FC74E0002163280B4682
:100A30000191009102910D9102D05B2807D03BE01B
:100A4000E80601D40120A0600120009034E0E068B5
:100A500001210D906269039890475E2807D101201B
:100A60000190E06801210D90626903989047216927
:100A7000002906D10B4604AA8F00491C0829D3512E
:100A8000FADB002851D02169002926D00298401CA9
:100A9000029062690398012190475D28F1D1019885
:100AA000002808D0002004AB8100401C5A58D243D3
:100AB00008285A50F8DB04AB2069002820791CD0A4
:100AC0004007029A00980D9B0092224602901F4810
:100AD0000F991DD5C046C0461CE0C117C90E0918A4
:100AE0004A114909930004AA9A184901411A136846
:100AF0000120884003431360CBE740072246134898
:100B00000F9902D5C046C04604E0C046C04601E089
:100B1000C046C04600280ADA401C06D10E980028BC
:100B200003D00020C04311B0F0BD0C98FBE7E907EB
:100B300002D10C99491C0C91361800200E9052E6F7
:100B4000CCCCCC0CFFFFFF7FF1F7FFFFFEFFFFFFD8
:100B500010B500F039F800F031F810BD7546FFF718
:100B60000FFEAE46050069465346C008C0008546E4
:100B700018B020B5FFF70CFB60BCB6460026002776
:100B8000C0C5C0C5C0C5C0C5C0C5C0C5C0C5C0C53D
:100B9000403D490849008D467047000010B500F0FF
:100BA0003BF8001D10BD00BF8923000010B50446AE
:100BB000C046C0462046FFF7DBFA10BD10B500283E
:100BC00001D001F089FC10BD10B5012805D000212D
:100BD00003A000F025F8012010BD09A1F8E70000EE
:100BE00053494752544D454D3A204F7574206F6616
:100BF0002068656170206D656D6F7279000000007E
:100C00003A2048656170206D656D6F727920636F61
:100C10007272757074656400004870472801002086
:100C200070B505460C460A2000E06D1C01F055FC2D
:100C3000002D06D028780028F7D102E0641C01F0CE
:100C40004CFC002C02D020780028F7D10A2001F0BB
:100C500044FC70BD024670B50A4392072AD11E4D6E
:100C6000EE0104C808C9541B9443344017D0D0B2D5
:100C7000D9B2401A2106014310D190B299B2401A5C
:100C8000210401430AD110021902000A090A401A7C
:100C90002102014302D1100E190E401A70BD9A4272
:100CA000DFD010BA19BA884201D9012070BD0020E6
:100CB000C04370BD02780B78401C491C002A09D043
:100CC0009A4207D102780B78401C491C002A01D0B7
:100CD0009A42EFD0D01A70BD0101010170B5444CA9
:100CE00023463833134A9360134B1D6805262E4361
:100CF0003A25AE431E60D0605068744B03405818CC
:100D00005060106801210143116010680221014305
:100D1000116020680028FCD4022000F019FD206832
:100D200034490840401C206020680840001D2060B5
:100D300070BDC0461C00024004080240704700001D
:100D4000FEB504464E08304601F00AFC02903046DB
:100D500001F0C8FB064601902089A189081A20826B
:100D60006189E289511AA182E0824218524262826C
:100D700049000818404200B21549164DA8472A46B6
:100D800020831625605F3146904700901826A05FAB
:100D9000029F39460F4A9047009940186083A05F30
:100DA00001990C4EB04732460646605F394690477F
:100DB000301AA0831A20215E206882689047E08361
:100DC0001C20215E6068826890472084FEBDC0467A
:100DD000E6490000C9270008C281818170470000F0
:100DE00003480168034A0A40111D01607047C0466C
:100DF00008240140E8FFFF7F0A480168890405D5FF
:100E000001214A034260426C8A4342647047C046F3
:100E10007047000003480168890601D52021416020
:100E20007047C0460000024010B501F057FA01F0CB
:100E3000E5FA0A48012101600221016004210160F4
:100E400001F076FE064C2060416B88472068816B7C
:100E5000884704A0FFF7E4FA10BDC0461800005010
:100E6000C8010020464F4320696E697469616C694E
:100E70007A6174696F6E2073756363656564656418
:100E80002E0D0000FEE7000070B50D4B1C4624340B
:100E90000C4A94600C4C25680C262E433325AE4337
:100EA0002660D0605068094C0440601850600120F2
:100EB000C1031C680C431C6011680143116070BDC4
:100EC0000058004008000240000802400000FFFFF8
:100ED00080B52C48016889060AD5416820220A435A
:100EE00042600448022101602548006801F06EFB61
:100EF00080BDC04604000240F0B585B00493029264
:100F0000019104461E4800681E4D0B9E0A980390EE
:100F10002868C10B012738468843314600F044FC5D
:100F20000028F5D00499019801436068164A1040E2
:100F300004910843154901436160286838403146EF
:100F400000F032FC0028F8D00298C0B2A0622868F5
:100F50004006C00F314600F027FC0028F7D060683B
:100F600009490840039909040143049801430848CA
:100F700008436060A7610248006805B0F0BDC04644
:100F800024480140185800400080007C0020018067
:100F9000002400828268D20712D1C268094B134034
:100FA0004A681A438B681343CA681A43C260032213
:100FB0009207036993430968194301610020704750
:100FC00001207047C73FFFFFF0B5C268C268826862
:100FD000D20713D101225305C2689202134A0FD5DA
:100FE0004C68F02C0CD1C46814400D6825430E46A3
:100FF0000C3654CE2A43224332430CE0012213E044
:10100000C46814400D6825430F460837D4CF2A43DF
:10101000224332433A43C260C46800221C4203D0D8
:101020004968836A0B4383621046F0BD3CC2FEFFF1
:1010300081B005490A6802430A60096801400091CD
:10104000009801B07047C04640100240FCB5002235
:101050000C682346D34047D0012393401C4041D025
:101060004B6801935B1E022B10D2234663438F68AB
:101070005F4303255D438668AE433E438660CE688A
:1010800066434768A7433743476003E0234663430B
:1010900003255D43ED430E695E43C7682F40374328
:1010A000C760019E022E17D1260A01D0242400E039
:1010B00020244F6901940459002E009502D07643F4
:1010C000764301E01E465E430F257543AC437743EC
:1010D0002743019C0751009D4C68634304682C40E2
:1010E0001C430460521CB3E70020FCBDB0B503688C
:1010F0000122934303608B68CC6824021C431F23A6
:101100001B0205689D43254305604B680361036826
:101110001343036084680F4B1C40846084680E4D49
:1011200025408C692C430D692C438460002D03D02D
:10113000D203846814438460032212050468944334
:101140000A682243026042681A40496911434160BB
:101150000020B0BDFF7FFFFF00F8FFFF81B00B490B
:101160000A6802430A60096801400091009801B0D2
:101170007047C04681B005490A6802430A600968A1
:1011800001400091009801B07047C0463410024001
:1011900080B57D21C900FFF779F9401E03494860F9
:1011A000002088600520086080BDC04610E000E097
:1011B00010B5044601F01CF820600A490A6892093B
:1011C0003C231340294AD2581F231A40D040606064
:1011D0000968890A1C220A40234989581940C840D5
:1011E000A06010BD0810024010B5032811D1194CA1
:1011F000606D0321084009044018174988420AD04D
:10120000164988420CD0164988420FD100F0F0FFF1
:1012100010BD002010BD0120C103E06D800303E07C
:1012200020684005C1170F48084010BD00F0E0FFDE
:10123000A168A268920A1C2313400B4AD2581F23AC
:101240001A4089093C240C40084909591940C840F2
:10125000D04010BD00100240030003000200030054
:10126000010003000024F4004C3000080C3000089A
:10127000014908607047C04600000020B0B51F2239
:10128000D30234C99C433F239B029D430B782B43DD
:1012900023430F242403A2431A4303239B034C68D4
:1012A0009C4314434A88134B134023430A6A1A434E
:1012B000DF4B0C3998421AD10F4B1A404B690F4C37
:1012C0001C4014438A690E4B134023432322120609
:1012D0004C6A94431C4311225206CB699343234327
:1012E000012252070C6A94431C438A6A22434264D7
:1012F0000020B0BDFF1F0000FFFF00CCFFFF0FCCA0
:10130000FFFF0FDCB0B50468C94A904204D01A4D03
:10131000A84206D0234608E070239C434B68234331
:101320000FE070239C434B682343A84209D0134C21
:10133000A04206D0BF4CA04203D0BF4CA0421C46E6
:1013400004D103242402A343CC681C4304608B68AB
:10135000C3620B888362904205D0B64A904202D0A5
:10136000B54A904201D109690163416901220A43EA
:1013700042610020B0BDC046000400400020004093
:10138000FFB501231C05A14200D1CEE0102900D1F8
:10139000F7E001242502A9423FD02503A9427ED0CF
:1013A0002504A94200D195E0012900D03DE1E143A7
:1013B000036A0B40036213690B40056A0327BD43B0
:1013C0001D43116803915168294346688569984B0C
:1013D000984205D0974B984202D0974B984213D130
:1013E0003B029E436302546902949769D4699F4308
:1013F000374366003E430C239943029B5B08DB00A6
:101400000B4391688900194346608D4B1D40039B37
:101410001D438561D268426305E1016AA943016207
:101420008A49491C13691B020B40032102910902DE
:10143000046A8C431C431168039153681B022343C5
:101440004568C4697A4FB84205D07A4FB84202D095
:10145000794FB84219D102990F03BD4356690196DD
:101460009669D76900973701774E3E402E43009D1D
:101470006D01354389028B437549091D019EB602F2
:101480000E401E4391688B02334345606C490C400B
:1014900003990C43C461D168C1630362C4E0016A6B
:1014A000A9430162016A4368166855680395156986
:1014B0000295C7695E4DA84206D05E4DA84203D092
:1014C0005D4DA84200D099E0A403A3439469A40110
:1014D0001C4394E05A4D7335016A29400162016A48
:1014E0001668536803931469476D514B984205D0B1
:1014F000504B984202D0504B984205D143682B4044
:1015000095692D021D4345604D4BDB1C1F40374341
:101510004765836DD2688265032212049143620895
:1015200052040A430399090429E001273905036A93
:101530008B430362016A1568536803931469466D0F
:101540003B4B984205D03B4B984202D03A4B9842D5
:1015500006D1BB0447689F4393699B023B434360AA
:10156000364B1E402B0233434365D268C2650322CB
:1015700012059143620852050A4303990905114374
:1015800051E0016A102399430162016A30239943B3
:1015900013695B085C010C4317685168090121431A
:1015A00045688369224EB04205D0224EB04202D037
:1015B000214EB04219D10326B602B54354690394B3
:1015C0003E469769D4690294BF00214C3C4037469F
:1015D0002C43029DED002543C024A143039C6408D5
:1015E000E4010C439168890121434560154C234077
:1015F0003C021C438461D268826314E01C46446050
:10160000104B1F4033023B43C361D2680264032284
:10161000120391430C4A1032029B1B0313400B43ED
:1016200003990903194301620023184604B0F0BD71
:10163000002C01400048014000440140FF8FFFFEA4
:101640008CFFFEFFFF8CFFFEF0DFFFFFFFFDFFFFC3
:10165000FCF7FFFFFEB504460068C00724D10D4625
:1016600020682B490140A86808432969014368693B
:101670000843E969014321600320010362688A434A
:10168000E968114361600002A1688143A8690843C9
:10169000A06001261F48844208D01F4884422FD1F1
:1016A0000320FFF7A1FD05E001262FE06846FFF7C4
:1016B0007FFD0298002823D06F68002F20D0296872
:1016C00000260B291CD8890014A25158FEF7DEFE13
:1016D0000121C903EA698A420BD179084000401808
:1016E0003946FEF7D3FE194901400007400F401864
:1016F00005E0790840183946FEF7C8FE80B2E06080
:10170000E06A0F21884329880143E1623046FEBD2B
:10171000F369FFEF00440040003801400100000081
:1017200002000000040000000600000008000000A5
:101730000A0000000C000000100000002000000063
:10174000400000008000000000010000F0FF0000E9
:1017500081B008490A680092401C01D30020C043B0
:10176000009A002804D00A68D203D2171018F8E7AC
:1017700001B0704710E000E070B50A46044600264C
:10178000815F104601F020F805460220205EA25F2E
:101790000349514001F018F84019608000B270BD53
:1017A000FF7F00000180704710B50B4A14680028C5
:1017B00004D1002C02D15068002309E00123012844
:1017C00001D1002004E05068041B00208C4201D9A4
:1017D0001060184610BDC04668010020F0B595B0F5
:1017E000002003900A9009900890079001231805A3
:1017F000D749CA680243CA60CA6802400B920B9874
:101800000868029318430860086818400B90032684
:1018100006960496102005900B9805273C0705AD09
:1018200020462946FFF712FC0398099006962020CF
:101830000590064620462946FFF708FC3E48016809
:1018400039433A22914301603C480168C34A0A4047
:101850000260049B190302688A43026001683446EF
:101860003143016001684022914301600168802298
:101870000A430260190202688A43029E310251182B
:10188000016001682E4A1140B2020192891801607C
:101890002C480168FF22914301603503C848056068
:1018A000039F149713941297B0071190264C11A917
:1018B0002046FFF76FFB7005E1688143E1601095FA
:1018C000019D04980F900E970D97F0200C902846DC
:1018D00040300B900BA92046FFF776FB3346E168BA
:1018E00004208143E1602169B143216171072269CC
:1018F0008A432261A16A30220A43A26271032268EC
:101900000A42FCD02160E1680D4A11402943E160A0
:101910006169072291436161616881436160606828
:10192000082188436060A06808490140180708182A
:10193000A06015B0F0BDC046040802401C00024083
:10194000FFF3FFFF0CE400E000240140E8FFFF6F1D
:10195000B8B510490A68012002430A6009680140CD
:1019600000910099FF2213020B490C689C430C6004
:101970004402D44B1C6014040D68A54384052C1943
:101980000C6084021C6012060C6894430C60C00258
:101990001860B8BD3810024008E400E0F0B589B026
:1019A0000226224C3046A047042005460290A0475C
:1019B00001273846A04705200407A7623046019654
:1019C000A662A562089700260796069605960490DB
:1019D000F8030390164803AD164A29469047079628
:1019E000069605960497039720462946114A904784
:1019F0000796069605960497019803902046294677
:101A00000C4A90470B4A079606960596049702984B
:101A100003902046294617469047079604960820CB
:101A2000039020462946B84709B0F0BD5D11000873
:101A3000000800504D100008F0B58FB04449086808
:101A40000126304308600868304008900620009066
:101A500007900020019006900596049002270397B6
:101A6000F002029008980520040702AD204629469E
:101A7000FFF7ECFA009807900198069005960490FD
:101A800003973003029020462946FFF7DFFAB0059E
:101A90002F4A91680143916091680140089108982C
:101AA0002C4801680C220A4333218A4302602A48E9
:101AB00001682A4A0A40026003210A03036893432B
:101AC00003600268202313430360036840229343AA
:101AD0000360036880241C4304600B0204689C4379
:101AE0000460890203688B4303601D480168114349
:101AF000BF2291430160300672490860194809907D
:101B00000198089008AD284608301421FEF7BCFC67
:101B1000154C20462946FFF7E9FA70066168014333
:101B20006160E06811490140E160F003E1688143D0
:101B3000E160F004216881432160700421688143E1
:101B4000216070050A490A6802430A600FB0F0BDBF
:101B5000341002400008024008000240EFBFFFFFBF
:101B600018E400E0831130000058004001F8FFFF46
:101B700000000140B0B586B0002401940125A804FE
:101B8000FFF756FAFF2000040C490A6882430A60F6
:101B9000A8054C49086001A93F20088005940494D9
:101BA000084803900294084C2046FFF7ABFB2068DE
:101BB00080218843206006B0B0BDC04614E400E038
:101BC00000E100E0E803F0FF00480140F0B59DB0FF
:101BD00000261896159607960127FD022846FFF75E
:101BE00027FAFF200102364A13688B4313607B03F8
:101BF0000393F2490B600004136883431360B80336
:101C00000290086018A93F2008801C961B96C620E9
:101C10001A90102019902C4C2046FFF773FB206877
:101C20008021019108432060A06876490140A160AD
:101C3000E0692843E061179616961196129613965E
:101C4000149660201090390310AA2046FFF798FBE5
:101C5000B802E1698143E161A0681C49014030316B
:101C6000A160A0681A490140881DA060E068402179
:101C70008843E060E06802998843E0606068702112
:101C8000884360600F200005616881436160A0683F
:101C900001990843A06004A9CE810E7304960596AD
:101CA00006960F960E960D9678060C900B960A9651
:101CB0000996039808902046FFF7E0FA1DB0F0BDA2
:101CC0000CE400E000E100E0002C01408FFFCFFFBA
:101CD000F8FFFEFFF0B599B014AD14212846FEF7C9
:101CE000D3FB0027139712971197444801680222EB
:101CF000049211430160072129800068104006907A
:101D00001797C720169060201590044603900698F8
:101D10003B4E30462946FFF7F5FA306880210591A1
:101D200008433060B06837490140B160B0690821AC
:101D300002910843B0610D970E970F9710970C947E
:101D400001250CAC304B30462946224698470420EA
:101D5000C1430191B0690840B061E802B169014333
:101D6000B1611021009130462246274B9847A802C6
:101D7000B1698143B161F06902990843F0612902B8
:101D800030462246204B9847F06901990840F0619F
:101D9000706800990843039988437060B06805999A
:101DA0008843B0602846FFF7E5F9049E3046FFF708
:101DB000E1F90B950A970997089707964020069036
:101DC00005200007039006AC104A214690470B956A
:101DD0000A97099708970796059806900398214651
:101DE0000A4A90470B950A97099706A8E0C06B48E6
:101DF0002146064A904719B0F0BDC0463C1002404B
:101E000000040040F8BFFEFF811300084D100008D9
:101E1000F0B591B06048016A03229143016201214B
:101E200002918903C2680A43C260C2680A400992EB
:101E3000099901680224214301600068204009904B
:101E4000049400270597069707970897099880201C
:101E500001900390514E03AD30462946FFF7F6F846
:101E600005970494069707970897402403943046F3
:101E70002946FFF7EBF84A4B1868322101430D2041
:101E80008143196047480168474A11400160016871
:101E9000464A1140029A5203891801602021CD431D
:101EA000016829400160E14302680A40026002685B
:101EB000019C2243026002683D4E3240026002688B
:101EC0003C4E324002605A68332616430C22964339
:101ED0005E604369344E3340103343614369334E8F
:101EE0003340436143692B40436143690B40436185
:101EF00041692143416141692D4B1940416141696B
:101F00002C4B19404161FF2000062B490B6883438D
:101F10000B60029DE8062949086010970F970E9202
:101F20000D970C970B97E12000030A900997244C1A
:101F300009A92046FFF78EFBEFF3108085F3108888
:101F400007214A07A3689343A36080F31088EFF347
:101F500010802B4685F310884906A2688A43A26048
:101F600080F3108868072A46216881432160092090
:101F7000C002616881436160A0682A218843A06033
:101F8000206828432060E0698002FCD5E0694002B7
:101F9000F9D511B0F0BDC046341002400004005025
:101FA0000808024030000240EFBFFFFFFFCFFFFFF5
:101FB000FFFCFFFFFFF3FFFF18E400E000E100E09B
:101FC0000038014010B50446408AA082A1894ABA6F
:101FD000E281228A09BA090C891A09016182081A68
:101FE000E08201B2A068826890472083608A10BDB9
:101FF000018270471CB5C288818800680A230224C8
:10200000009401930023FEF777FF1CBDF0B585B067
:10201000039245688468CA0361004910204C0C4053
:10202000029505604460826001462C31012B01D18C
:10203000A24203DC002B07D1A24205DA0123DB0711
:102040005A400192826000E00192034624334D78A9
:10205000AD005D196D8804958E78B2009D520F78A1
:1020600003253D430D700C21714347180299F96017
:102070009818039D4580601A0499FEF711FA0646E8
:1020800038610198001BACB22146FEF709FA801BAB
:1020900004990919FEF704FA786105B0F0BDC0464D
:1020A0000080FFFFB0B504462C20205C800702D4DE
:1020B000A068C00B20E025462C35228E501C2086BF
:1020C0006978E36B204698476A7891006118C98C5B
:1020D000238E8B4210D32978CB0704D16268A36882
:1020E0000CC4FD2206E0AA7000232386012393433B
:1020F0006B70FE221140297000B2B0BD10B50C23E8
:102100004B43C118CB680C694969514309192D2407
:10211000045DA4000019808C80184843C018C00BCF
:1021200000B210BD2D210022425403494162816258
:102130002D3001214170704701000100FEE70000D1
:10214000F8B50446808C471A39B2A069114DA847EA
:1021500000902620215EE069A84706462820215EDF
:10216000206AA847E18CE784218500997118081836
:102170006085A18D0818A08500B21621615E884295
:1021800003DC1421615E884201DAA1850846E085FE
:10219000F8BDC046D1270008F8B50093164604469E
:1021A000002787840F4D0846A847A0603046A847FF
:1021B000E0600098A84720614100A268E3688918A0
:1021C00049421218D218A261E1612062079800F01A
:1021D000D9FAE082069800F0D5FAA082A762E784D7
:1021E000F8BDC0469D2700088184704770470000F5
:1021F00010B5354CA068382101400D48082916D08B
:10220000102910D1E168E1684904490E4843E168AA
:102210004906490F491CFEF739F9E168490F491C85
:10222000FEF734F910BD21688904490FC84010BD7C
:102230000024F4007047704770B5224A10680221EC
:102240000843052398431060146807200440022CBB
:10225000FAD10124A5041C4A16682E4316602504F1
:1022600016682E4316601568AD03FCD5D568174E69
:102270002E40174D7519D560250616682E43166039
:102280002407D5682543D5601468A401FCD50F2424
:1022900024029568A543956094680C439C43946020
:1022A000916838230B40102BFAD1000391688143C9
:1022B0009160084C2046FEF76BFF2046FEF7D8FFE2
:1022C00070BDC04600200240001002408C80FF1FFD
:1022D000131000200090D0037047000004480168EC
:1022E000012211430160D103426C0A4342647047EA
:1022F0000048014005480168C90706D004490A683A
:10230000521C0A600121C943016070471048014016
:102310006C01002010B5074C2068C00708D00648A3
:1023200000680649086000F037F90120C0432060CA
:1023300010BDC046102C014024480140C4010020BB
:102340007047000010B501200103134A136A0B43C4
:102350001362116801431160C103536C0B43536452
:10236000AF2313640D4A13680343136013681024EA
:102370001C431460030214681C4314601346203B82
:102380001C6804431C60506A08435062002050617E
:102390009061D06110BDC046002C01402004004077
:1023A000F8B5154E3068C006464D1AD5102070603D
:1023B00028680127B843286028462C387902016034
:1023C00068684042C1B2414C204600F0EDF8EC6034
:1023D00068683F4901403802081868602868384337
:1023E00028603068400605D540207060686901218A
:1023F00088436861F8BDC0461C380140F8B5304AD2
:10240000104624302F4DA8602F4E306832230343EE
:102410000D20834333602D48E8606C682C480440ED
:102420000123190264186C60EFF3108783F310889E
:10243000906840242043906087F3108828681843F0
:10244000286010462830E8617068332707430C2065
:10245000874377601F482862A8691D4E30404018A6
:10246000A861EFF3108083F31088966880273743C4
:10247000976080F3108810201062EFF3108683F3CA
:10248000108817680743176086F31088EFF31080F1
:1024900083F3108816682643166080F31088EFF3E4
:1024A000108083F3108894681C43946080F3108834
:1024B000686918436861F4310846FFF749F9F8BDC7
:1024C000003801403000024008080240CD010020E1
:1024D0000000FFFF04000020FEE780B500F01EFDB5
:1024E00080BD0000B0B501214A03821813B2002B51
:1024F00001D50B4A821810B280094000244B1C18E9
:102500000225645F9206520C5443C903891A185E6F
:102510004843204901400819000C400000B2B0BDFA
:1025200000A0FFFFF8B514460D4606460B4F002CE1
:1025300011D001CE4721090600F010FDFEF75FF82B
:102540000549884200DC0448B84200DB3846288050
:10255000641EAD1CEBE7F8BD0080FFFFFF7F0000AD
:1025600010B50121C9038206520C891A4004C00D1E
:102570004000074B1C5E4C430649214018180223BB
:10258000C05E50430818000C400000B210BDC046A9
:102590006C3000080000FF7F80B50F48006880683D
:1025A000416A884780BDC04610B5017855290BD1D6
:1025B0004178302908D108490B68DC6CC11C80784F
:1025C000C01EC2B21846A04710BDC04680B5024822
:1025D0000068016C884780BDC8010020FEB5044634
:1025E000C180828043805808FFF7BAFF07466088A1
:1025F0004008FFF777FF014602900625605F414AD9
:10260000904701900426A05F39463E4A90470199C1
:10261000081A2081605F39463A4FB8470546A05FE7
:102620000299B8473E4640196082608100B201219C
:102630008903B84705460820205E1949B847401964
:10264000A0821221615E421AE28212B200B2002818
:1026500001DC032300E00223002A00DD5B1E0029C9
:1026600001D507256B4023765B1E042B10D8C0468E
:102670007B441B795B009F4402060B020600A0818D
:10268000891AE18108E0E1811018A081084603E081
:10269000A2815242E281401840422082FEBDC046E3
:1026A000D96E000001807047174800210160416029
:1026B00081607047F8B50C4605460027C15F0C20C5
:1026C000285E104A904766007043001400194010BD
:1026D0000D490860E95F0E20285E0A4A9047704362
:1026E00000140019401008494860E95F1020285E76
:1026F000044A904770430014001940100249886052
:10270000F8BDC046C92700083404004080B500F079
:1027100005FC80BD82B01948416801221143416027
:102720004168114000910099110702680A43026054
:102730000068084001900198FF20000610490A68CF
:1027400082430320800710180860FFF775FDFFF72C
:1027500025F9FFF7FDF8FFF70DFAFFF737FAFFF756
:10276000B9FAFFF755FBFFF767F9FFF737F8FEF700
:102770005BFB7D208000FEF7EBFFFAE73C10024098
:1027800020ED00E01CB5019001A86C460122214615
:10279000FFF7C8FE0020205E1CBD00000146C00DF2
:1027A000C2B208480B4603401818401C1346873B2A
:1027B00003D887239A1AD04000E09840002900D51A
:1027C00040427047FFFF7F004843C00B00B2704794
:1027D00010B50C460246C917C3172046FDF742FD47
:1027E0004904C00B401810BDB0B53420FDF7E3FC20
:1027F0000446002816D001208502284600F04EF835
:102800002060284600F04AF81549164AE262216322
:10281000154961626060204608300221FEF75EFAC9
:1028200012A000E002A0FDF7FBFD2046B0BDC046AF
:102830005741524E3A2043757272656E745F53650C
:102840006E736F7220696E697469616C697A617404
:10285000696F6E206661696C65642E0D0000000072
:10286000410D0008E10D0008D90D0008494E464F02
:102870003A2043757272656E745F53656E736F7242
:1028800020696E697469616C697A6174696F6E2020
:102890007375636365656465642E0D00B0B50546A8
:1028A0000C20FDF788FC0446002808D01248134984
:1028B0006160A06000206080258011A000E002A07F
:1028C000FDF7AEFD2046B0BD5741524E3A204C5068
:1028D000465F436F6E74726F6C6C657220696E69CF
:1028E0007469616C697A6174696F6E206661696C84
:1028F00065642E0D0000000079170008A517000878
:10290000494E464F3A204C50465F436F6E74726F8B
:102910006C6C657220696E697469616C697A617446
:10292000696F6E207375636365656465642E0D0061
:10293000F8B517460E4605462C20FDF73CFC04462C
:10294000002814D0E780A680256003204003FFF70D
:10295000A5FF1549154A6262A1621549E161A060AF
:1029600020460C300221FEF78FFA12A000E002A0F0
:10297000FDF756FD2046F8BD5741524E3A204D61B5
:10298000676E657469635F53656E736F7220696EFD
:10299000697469616C697A6174696F6E20666169D6
:1029A0006C65642E0D000000C51F0008F51F0008AF
:1029B000F11F0008494E464F3A204D61676E65741D
:1029C00069635F53656E736F7220696E69746961C4
:1029D0006C697A6174696F6E207375636365656491
:1029E00065642E0D00000000B0B54420FDF7E3FB48
:1029F0000446002812D020462D301649164A174B9F
:102A0000174D6563A363E2632164012141700021D6
:102A1000017014486062A06213A000E002A0FDF7FC
:102A2000FFFC2046B0BDC0465741524E3A204E49A9
:102A30005F436F6E74726F6C6C657220696E69743F
:102A400069616C697A6174696F6E206661696C6531
:102A5000642E0D00A5200008FD2000080D200008B0
:102A60002521000801000100494E464F3A204E49F9
:102A70005F436F6E74726F6C6C657220696E6974FF
:102A800069616C697A6174696F6E207375636365DF
:102A9000656465642E0D000010B53C20FDF78BFBCE
:102AA0000446002809D013481349144A226361637D
:102AB000A0630020A08512A000E002A0FDF7B0FCFA
:102AC000204610BD5741524E3A205049445F436F53
:102AD0006E74726F6C6C657220696E697469616C7A
:102AE000697A6174696F6E206661696C65642E0D28
:102AF00000000000E9210008412100089921000898
:102B0000494E464F3A205049445F436F6E74726F8E
:102B10006C6C657220696E697469616C697A617444
:102B2000696F6E207375636365656465642E0D005F
:102B3000F8B55020FDF73FFB0446002828D0224876
:102B40006C210E22FFF7F4FEA060FFF74DFEE0605F
:102B50001E4800F063F860601D4DA8472061A8473B
:102B60006061A847A061A847E061FFF73DFF1949F0
:102B7000194A1A4B1A4D20621A481B4E1B4F6563A7
:102B8000A363E76322646164A664E06418A000E0C4
:102B900002A0FDF745FC2046F8BDC0465741524E05
:102BA0003A20504D534D5F4D6F746F7220696E69BE
:102BB0007469616C697A6174696F6E206661696CB1
:102BC00065642E0D0000000000580040FF7F0000EB
:102BD000992A0008DD2C0008BD2C0008FD2E0008F5
:102BE000212D0008452E0008892E0008C12E00085E
:102BF000494E464F3A20504D534D5F4D6F746F72A2
:102C000020696E697469616C697A6174696F6E209C
:102C10007375636365656465642E0D00B0B5054624
:102C20002C20FDF7C8FA044600280CD0134814499C
:102C3000144A154BE36122626162A0622580FFF7AE
:102C400081FB12A000E002A0FDF7EAFB2046B0BD28
:102C50005741524E3A20535650574D5F4472697651
:102C6000657220696E697469616C697A6174696FF3
:102C70006E206661696C65642E0D0000B526000843
:102C8000A9260008DD250008A5260008494E464F64
:102C90003A20535650574D5F4472697665722069E9
:102CA0006E697469616C697A6174696F6E2073759D
:102CB000636365656465642E0D000000B0B504466D
:102CC0002420205CFE210140022906D1656C206A87
:102CD000016C884701462046A847B0BD70B50D4637
:102CE0000446C16B88470D4E3078062804D3E0694E
:102CF000826B294690470020401C3070A06812214A
:102D0000415EE069426B90474042208601B26069B3
:102D1000826B9047A16C2046884770BDCC01002093
:102D2000F0B585B004464068416A88470A20FEF73E
:102D30000FFDE06842890189436A9847A068C2692B
:102D400049219047A068416A884701200490FEF716
:102D5000FFFCA068417B0391007B02902069056B1A
:102D60002B4901912B4F00972B492C4A00263346C3
:102D7000A8476069056B0097254901912649274AB4
:102D80003346A8472569AF6B254930468847014639
:102D90002846B8476569AF6B2248214988470146F4
:102DA0002846B847A069056B1F4F01971F4900913E
:102DB0001F49204A3346A847A569AE6B1E481849EB
:102DC000884701462846B047E069056B17490091DE
:102DD00001977F21C905194A194BA847029800039A
:102DE00003990901081806B2E069826B31469047E1
:102DF000206A416B88472425635D049A1340206A4A
:102E0000876B3146B8470220605505B0F0BDC0461B
:102E10003333333F333333BF0000303E1417E03CCD
:102E200085270008CDCCCCBDCDCCCC3ECDCCCCBE06
:102E300000E88042C08EDD430AD723BD6F12833A7B
:102E40000000A0417FB5044608782422A054FE2249
:102E50000240022A12D126462436481C6D462B1DFC
:102E600007A12A46FDF716FA04202A5E0020295EF3
:102E7000307801230340206A846BA0477FBDC046A1
:102E80002578202578000000B0B50446C1680069A7
:102E90001E22895E426B9047E085E0682021415EFA
:102EA0006069426B90470246A0852E20215EE38C2C
:102EB0006068056AA8476068826AC3219047B0BD10
:102EC000B0B504468068816A884707254543658513
:102ED000E584A0681821405EC721C943FDF7E0FAE8
:102EE00005490968193141434819208581B2E068D4
:102EF000026B9047B0BDC046242C014005480168D4
:102F000020220A4302600448016801220A43026049
:102F10007047C046005800400C2C014003490A6825
:102F20001206FCD5C2B2CA607047C0461C380140C8
:102F300010B500290AD00878002807D00548784441
:102F4000FDF788FE002801D0002010BD024878441B
:102F500010BD0000520500004A05000070B5420097
:102F600064414B005C41120E39D01B0E38D0FF2A51
:102F70003CD0FF2B3AD0D2187F3A40024902400A97
:102F8000490A4518ED0106004E43000A090A484364
:102F90000104731A4019190C4318990F04D05B08E7
:102FA000012149075B1A521CD80904D3401CF503C0
:102FB00001D19D0607D0FF2A08D2D50506D0E40727
:102FC0002043401970BD0125A843F4E7002A01DC25
:102FD000E00770BD2402FF202043C00570BD1B0E1A
:102FE000FF2A03D0FF2B01D0E00770BDFF26360675
:102FF0004500B54206D84D00B54203D8D218FF2A85
:1030000000D0E7E7004870BD0000C07F000000006E
:1030100000000000000000000000000000000000B0
:10302000000000000000000000000000010000009F
:103030000200000003000000040000000600000081
:103040000700000008000000090000000000000068
:10305000000000000000000000000000010000006F
:1030600002000000030000000400000000009201C4
:103070002403B6044806D9076B09FB0A8C0C1C0E06
:10308000AB0F3A11C8125514E2156E17F918831ACE
:103090000C1C931D1A1F9F202422A7232825A82635
:1030A0002728A4291F2B992C112E872FFC306E3234
:1030B000DF334E35BA3625388D39F33A573CB83DB3
:1030C000173F7440CE4126437B44CD451D476A4897
:1030D000B449FB4A404C814DC04EFB4F34516952BC
:1030E0009B53CA54F6551E5743586459825A9D5BE8
:1030F000B45CC85DD75EE45FEC60F161F262EF63DF
:10310000E964DE65D066BD67A7688C696E6A4B6B43
:10311000246CF96CCA6D976E5F6F2370E3709E71BB
:1031200055720873B67360740575A6754276D976C4
:103130006C77FB7785780A798A79067A7D7AEF7AD7
:103140005D7BC67B2A7C897CE47C3A7D8A7DD67D4A
:103150001E7E607E9D7ED67E0A7F387F627F877F5F
:10316000A77FC27FD97FEA7FF67FFE7FFF7FFE7F4A
:10317000F67FEA7FD97FC27FA77F877F627F387F14
:103180000A7FD67E9D7E607E1E7ED67D8A7D3A7DBC
:10319000E47C897C2A7CC67B5D7BEF7A7D7A067A2B
:1031A0008A790A798578FB776C77D9764276A67525
:1031B00005756074B673087355729E71E370237061
:1031C0005F6F976ECA6DF96C246C4B6B6E6A8C697D
:1031D000A768BD67D066DE65E964EF63F262F161FE
:1031E000EC60E45FD75EC85DB45C9D5B825A645955
:1031F00043581E57F655CA549B5369523451FB4FDE
:10320000C04E814D404CFB4AB4496A481D47CD45EC
:103210007B442643CE417440173FB83D573CF33AB8
:103220008D392538BA364E35DF336E32FC30872F74
:10323000112E992C1F2BA4292728A8262825A7233F
:1032400024229F201A1F931D0C1C831AF9186E1735
:10325000E2155514C8123A11AB0F1C0E8C0CFB0A68
:103260006B09D9074806B6042403920100006EFEDC
:10327000DCFC4AFBB8F927F895F605F574F3E4F1A0
:1032800055F0C6EE38EDABEB1EEA92E807E77DE5B8
:10329000F4E36DE2E6E061DFDCDD59DCD8DA58D931
:1032A000D9D75CD6E1D467D3EFD179D004CF92CD12
:1032B00021CCB2CA46C9DBC773C60DC5A9C348C273
:1032C000E9C08CBF32BEDABC85BB33BAE3B896B76F
:1032D0004CB605B5C0B37FB240B105B0CCAE97AD2A
:1032E00065AC36AB0AAAE2A8BDA79CA67EA563A4DE
:1032F0004CA338A229A11CA0149F0F9E0E9D119CC7
:10330000179B229A30994398599774969295B59441
:10331000DC93079336926991A190DD8F1D8F628EA9
:10332000AB8DF88C4A8CA08BFB8A5A8ABE89278980
:10333000948805887B87F6867686FA85838511854D
:10334000A3843A84D68377831C83C68276822A82BA
:10335000E281A08163812A81F680C8809E80798085
:1033600059803E80278016800A800280008002807B
:103370000A80168027803E80598079809E80C88090
:10338000F6802A816381A081E2812A827682C682C8
:103390001C837783D6833A84A38411858385FA8539
:1033A0007686F6867B87058894882789BE895A8A1F
:1033B000FB8AA08B4A8CF88CAB8D628E1D8FDD8FC3
:1033C000A190699136920793DC93B5949295749687
:1033D000599743983099229A179B119C0E9D0F9EE6
:1033E000149F1CA029A138A24CA363A47EA59CA66F
:1033F000BDA7E2A80AAA36AB65AC97ADCCAE05B0C6
:1034000040B17FB2C0B305B54CB696B7E3B833BA96
:1034100085BBDABC32BE8CBFE9C048C2A9C30DC5AA
:1034200073C6DBC746C9B2CA21CC92CD04CF79D0CE
:10343000EFD167D3E1D45CD6D9D758D9D8DA59DCE3
:10344000DCDD61DFE6E06DE2F4E37DE507E792E8CD
:103450001EEAABEB38EDC6EE55F0E4F174F305F57A
:1034600095F627F8B8F94AFBDCFC6EFE0000000078
:10347000A035000800000020080100000401000839
:10348000A836000808010020C80D0000200100082F
:103490001001000043000000F8FFFFFF0040404023
:1034A0004040404040404141414141404040404017
:1034B00040404040404040404040404040050202C3
:1034C0000202020202020202020202020220202082
:1034D00020202020202020020202020202029090DE
:1034E00090909090101010101010101010101010DC
:1034F0001010101010101010020202020202888830
:10350000888888880808080808080808080808083B
:103510000808080808080808020202024000000023
:10352000000000000000000000000000000000009B
:10353000000000000000000000000000000000008B
:10354000000000000000000000000000000000007B
:10355000000000000000000000000000000000006B
:10356000000000000000000000000000000000005B
:10357000000000000000000000000000000000004B
:10358000000000000000000000000000000000003B
:10359000000000000000000000000000000000002B
:1035A0000024F4007573617274204F4B0D0A000003
:1035B000000000000000000000000000000000000B
:1035C00000000000000000000000000000000000FB
:1035D00000000000000000000000000000000000EB
:1035E00000000000000000000000000000000000DB
:1035F00000000000000000000000000000000000CB
:1036000000000000000000000000000000000000BA
:1036100000000000000000000000000000000000AA
:10362000000000000000000000000000000000009A
:10363000000000000000000000000000000000008A
:10364000000000000000000000000000000000007A
:10365000000000000000000000000000000000006A
:10366000000000000000000000000000000000005A
:10367000000000000000000000000000000000004A
:10368000000000000000000000000000000000003A
:10369000000000000000000000000000000000002A
:0836A000000000000000000022
:04000005080000C12E
:00000001FF
