:020000040800F2
:1000000060070020850100084D1B0008DD16000870
:1000100000000000000000000000000000000000E0
:10002000000000000000000000000000AB1B000802
:1000300000000000000000004F1B0008AD1B00087E
:1000400097010008000000009701000897010008D0
:100050009701000897010008970100089701000820
:1000600000000000970100089701000897010008B0
:1000700097010008970100089701000800000000A0
:100080009701000800000000000000009701000830
:100090000000000097010008970100089701000880
:1000A00097010008970100089701000897010008D0
:1000B00097010008000000000000000000000000A0
:1000C00000F002F800F04FF80CA030C808382418EF
:1000D0002D18671EA246AB4654465D46AC4201D180
:1000E00000F041F87E460F3EB6460FCC0126334263
:1000F00000D0FB1A3343A246AB46184794220000B7
:10010000B4220000103A02D378C878C1FAD8520756
:1001100001D330C830C101D504680C6070470000BD
:100120000023002400250026103A01D378C1FBD813
:10013000520700D330C100D50B60704710B5642959
:1001400002D100F0C9F810BD782902D100F0FAF808
:1001500010BD002010BD1FB50098019900F0DDF919
:100160001FBD10B510BD00F0C9FA1146FFF7F3FF2F
:1001700001F0E8FE00F0E1FA03B4FFF7F2FF03BC80
:1001800001F0D4FE0748804707480047FEE7FEE736
:10019000FEE7FEE7FEE7FEE704480549054A064B91
:1001A00070470000B51B0008C10000086001002076
:1001B000600700206003002060030020704770B5D6
:1001C000064600F08DF9056830460B30C408E4009F
:1001D000B44201D8002070BD68682A46002818D0B3
:1001E0000168A14211D30B46214608318B4208D346
:1001F000436801194B6003681B1B0B60516004606E
:1002000001E041685160001D70BD02464068002851
:10021000E6D12146284600F06BF90028DCD170BDFC
:1002200070B50446051F00F05BF90068002C1AD079
:10023000446801E020466468002C01D0AC42F9D348
:1002400001680A18AA4204D12A6805468918016083
:1002500000E0456028684119A14205D161686960E4
:1002600021684018286070BD6C6070BD0FB40549EE
:1002700010B503AA029800F0DDF910BC08BC04B068
:10028000184700007000002070B5044685690068BA
:10029000C10601D5302600E02026C00707D070BD7A
:1002A00062683046A1689047206A401C20626D1E3B
:1002B000F6D570BD70B5044685690078C00707D1D2
:1002C00070BD6268A16820209047206A401C2062AF
:1002D0006D1EF6D570BD0000F7B5002575291068B4
:1002E000009914A611D0C046C046002802DA404248
:1002F00011A608E0009909688A0701D50FA602E057
:10030000490704D50EA6012501E0C046C046009F5E
:100310000024243704E000F0A1F930313955641C81
:100320000028F8D12B4632462146009800F029F9E2
:10033000FEBD0000000000002D0000002B000000AA
:100340002000000070B504460D4621461068C046E6
:10035000C0462188090502D50F4A7A4402E00E4AB8
:100360007A440E3223460021243305E006070009B3
:10037000360F965D5E54491C0028F7D12078002383
:10038000000705D5702D03D0002901D002231132BA
:10039000204600F0F6F870BD821F0000F3B5044659
:1003A000002081B020622046E168884700287AD08A
:1003B000252802D06268A16871E0E1682046002526
:1003C000884706460020E0610746A0612A2E0AD031
:1003D000304601F07EFF002827D0B8000019303EDB
:1003E0000090866119E00298BA00121902C8916162
:1003F00002902046E1688847012F064617D1E06940
:1004000000281FDA202085431CE000980A2180691B
:10041000484300998019303888612046E168884750
:10042000064601F056FF0028EFD1012F0AD02E2EEC
:1004300008D12046E16888470646202005437F1CF6
:10044000022FC3DBA069002803DA4042A06101202B
:100450000543E80701D010208543002E23D0304605
:100460004138192803D80120C00205432036204610
:1004700025603146029A1546FFF760FE00280BD032
:10048000012806D0ED1DE808C000083002908AE778
:1004900009E02D1D029586E762683046A168904705
:1004A000206A401C7EE7206AFEBD000010B50446AD
:1004B00003E001F043FD401C08D020780549641C8E
:1004C0000028F6D10A2001F039FD10BD0020C043FC
:1004D00010BD0000700000207047704770477047E3
:1004E00000487047180000207047704770477047F9
:1004F00038B504460A4600206946C046C046002872
:1005000005D002462046009900F0C0F8012038BD11
:1005100010B5012000F0ECF810BDF8B5C046C0469B
:10052000054600200C461020C0460646A819A042E9
:100530000DD9324669460020C046C046070001D1A9
:1005400000F0D6F80098A04200D00546C419FFF785
:10055000C7FFF61D07460560F008C000461928468B
:1005600000F008F8B44204D031463868A21B00F00D
:100570008DF8F8BD00210160416080607047102057
:100580007047FFB504460D4681B0243000902168C5
:10059000880604D51022E0699143216000E0012023
:1005A000A84201DD471B00E000270498A1697A19E1
:1005B0001018081AA0612078C00602D42046FFF760
:1005C00063FE002608E003986268A168805D90479A
:1005D000206A401C761C206204988642F3DB207857
:1005E000C0060AD52046FFF74FFE06E06268A16804
:1005F00030209047206A401C206238467F1E002829
:10060000F4DC07E000986268A168405D9047206ACA
:10061000401C206228466D1E0028F3DC2046FFF7B0
:1006200049FE2078000602D5022005B0F0BD012069
:10063000FBE70000084B70B50D467B4400F045F821
:100640000446284601F077FC002802D00020C04371
:1006500070BD204670BD0000FF18000001468008F4
:10066000081A02091018020A1018020C1018C00803
:10067000820012185200891A01E0401C0A390A2926
:10068000FBD27047004870471000002010B50346A9
:10069000406801E003464068002801D08842F9D351
:1006A0001868C3188B4206D0CB1CD808C000001DA8
:1006B000411A521A0146081D0A60FFF7B1FD10BD2C
:1006C00001694A1C02610878704700B58FB0029139
:1006D0000021059105490193794403911146049045
:1006E0006846FFF75BFE0FB000BD0000E5FFFFFFAF
:1006F00010B500F031F800F028F810BD7546FFF78E
:10070000C1FFAE46050069465346C008C000854695
:1007100018B020B5FFF740FD60BCB64600260027A4
:10072000C0C5C0C5C0C5C0C5C0C5C0C5C0C5C0C5A1
:10073000403D490849008D46704710B50446C04603
:10074000C0462046FFF718FD10BD10B5002801D0A7
:1007500001F0ECFB10BD000010B5012805D0002110
:1007600003A000F021F8012010BD09A1F8E7000066
:1007700053494752544D454D3A204F7574206F668A
:100780002068656170206D656D6F727900000000F2
:100790003A2048656170206D656D6F727920636FD6
:1007A000727275707465640070B505460C460A2057
:1007B00000E06D1C01F0BBFB002D06D0287800285E
:1007C000F7D102E0641C01F0B2FB002C02D02078CB
:1007D0000028F7D10A2001F0AAFB70BDEFF31080CA
:1007E00072B6FEE7B0B5044600F0DEF80546601CC0
:1007F00002D08F480078041900F0D6F8401BA042C0
:10080000FAD3B0BDF0B58AB00A68002A00D1BEE0C4
:100810000E466049884201D0052100E00321009185
:100820000027089709973C46029601900FE01A436B
:100830002A60641C32681146E140BF1C089B1B1DE6
:100840000893099B08330993002900D19FE00125F3
:100850000495A5402A400792EBD003231846B840E0
:10086000C043394677683A461A40561E012E06970D
:10087000059112D806460390019883683340029E82
:10088000F6688E401E438660FB06DB0FA340466879
:10089000AE431E434660039908E0032A01460198CF
:1008A00004D11A46029E069D059F1DE0C3680B40B9
:1008B000029EB568059FBD401D43C560022A069D86
:1008C00012D103911C21089A11400F228A40E3089B
:1008D0009B00C3181D6A954332698A4003992A43D5
:1008E0001A62756803222A40BA4003680B4013431A
:1008F0000360A903890F9CD01821099A11400F2386
:100900008B40032225469543234A5219156E9D4379
:10091000603205231B0798420AD0214B984205D02C
:10092000204B9842009B04D1022302E0049B00E08C
:1009300000238B402B431360174D2A687168CB024C
:1009400008D5079B1A432A606A688B0208D4079B64
:100950009A4307E0079B9A432A606A688B02F6D5A0
:10096000079B1A436A600D4D6A688B0306D5079B87
:100970001A436A602A68C90307D558E7079B9A4358
:100980006A602A68C90300D551E79A4350E70AB064
:10099000F0BDC046000C0050001802408018024014
:1009A0000004005000080050054800687047C04629
:1009B0001F48007802490A68101808607047C0464E
:1009C0005801002010B50124200208490A6802439A
:1009D0000A60032000F00CF8002801D0204610BD6A
:1009E00000F028F80024204610BDC0460020024038
:1009F00070B50F4E31780124002916D005467D20B0
:100A0000C00001F06BFB01464148006801F066FB45
:100A100000F0A2FC032D08D8002806D10024E043F2
:100A20002946224600F01CF87560204670BDC0467D
:100A30000000002082B00948416801221143416052
:100A40004168114001910199110702680A4302604F
:100A5000006808400090009802B070473C100240C7
:100A6000002805D40322034693430A4A9A1803E058
:100A70000C220240064BD2188007C00E8901C9B271
:100A80008140FF23834010689843084310607047FB
:100A900014ED00E000E400E0F0B581B00325690248
:100AA0001A4E3246143A13688B43034313600124F1
:100AB00061020022884226D1F3480168306840056F
:100AC00021D50092A70206204843124901F006FBF7
:100AD000201A022816D0316839420FD0012811D0CF
:100AE000316839420AD000280CD03168394205D02B
:100AF000001D032806D031683942EAD1009A104619
:100B000001B0F0BD2A46104601B0F0BD147000409F
:100B10000800002040420F00F0B587B081788907B7
:100B2000584F01D4002650E00590012319073A469A
:100B3000203A10680840049006D1106808431060FD
:100B400010680840069006980292039101931E02D5
:100B50004D4C206830432060FFF726FF0546206893
:100B600030420AD1FFF720FF401B0228F7D90326A5
:100B700005980499002923D027E0032005460102A7
:100B80003868084011D00599496988420BD0386807
:100B9000019909043A680A433A603A688A433A601C
:100BA0003A4908403860C0075AD13A68374802408D
:100BB000059841691143396000260499002904D140
:100BC000029B1968039A914319600568E90705D1EA
:100BD000A9060DD401216A0416D42BE03946083940
:100BE0000A6803239A43436813430B60A906F1D5AF
:100BF000032109033A46083A13688B438168194375
:100C0000116001216A0415D53A46083A1368204C50
:100C100023400C4631460669334313601C4A521C7C
:100C200096420E46214605D10A043B46503B1C68BD
:100C300014431C602A0510D58D03032292033B4602
:100C4000083B1C689443C26814431C60AA4204D148
:100C50000804503F396801433960304607B0F0BDA1
:100C6000FFF7A2FE0646864C386880079DD4FFF742
:100C70009BFE801BA042F7D905982E4604990029B7
:100C80009ED0A2E75C10024000700040FFFCFFFF16
:100C9000FFFFFF3FF0B583B00D46012100281BD0B8
:100CA000019102907548006807242040A84216D29E
:100CB00072490868A04328430860714EFFF774FE2C
:100CC00007466E4800682040A84208D0FFF76CFE37
:100CD000C01BB042F5D90321084603B0F0BD029E07
:100CE00030688107924B0CD5410703D521031A6860
:100CF0000A431A600F2109021A688A43B168114336
:100D00001960C0071BD15D4800682040A8422CD95B
:100D10005A490868A04328430860594FFFF744FE2A
:100D20000646564800682040A8421ED0FFF73CFE09
:100D3000801BB842F5D90321084603B0F0BD0298E4
:100D4000406803285DD8810001A251588F46C046F3
:100D5000610D0008070E0008110E00081B0E0008A8
:100D6000194608390968490559E0029A1078400780
:100D70006F4B05D5200319688143D068084318607C
:100D800018688006400F22D01A6838210A40694846
:100D9000082A23D01A680A40102A5ED15968032213
:100DA0000A40032A00D0644859684906490F491C83
:100DB00001F094F95E4949684904490E48435C4989
:100DC0004968490F491C01F089F9594B06E018465A
:100DD000083800688004410F5748C84019688909DD
:100DE0003C220A40274989581F220A40D0402F49F7
:100DF000086026480068FFF7FBFD0146084603B07F
:100E0000F0BD596D0AE0194608390968890306E002
:100E1000194608390968890101E0996D8907019926
:100E200000D459E71968A14301431960144FFFF733
:100E3000BBFD06463E4800683821014002984068E4
:100E4000C000814200D15EE7FFF7AEFD801BB842D3
:100E5000F0D90321084603B0F0BD186808402028E7
:100E600002D10120C003B9E718680840182801D052
:100E70000020B3E77D200002B0E7C046002002401A
:100E80008813000008230008080000200400002048
:100E90000648006826490968890A1C220A40044954
:100EA00089581F220A40D0407047C04608000020E1
:100EB0004823000810B51E4C20688006400F06D05D
:100EC000226838210A401B48082A07D110BD083C77
:100ED00020688004410F1848C84010BD22680A40AD
:100EE000102A15D1616803220A40032A00D0124853
:100EF00061684906490F491C01F0F0F8616849042E
:100F0000490E48436168490F491C01F0E7F810BDDC
:100F100020680840202802D10120C00310BD2068AD
:100F20000840182801D0002010BD7D20000210BD0F
:100F30000810024000127A000024F400F0B587B0D7
:100F40000125002800D1ECE1049505900078C00748
:100F5000F94F2AD0B868F96803252A468A43382110
:100F6000014010204840821850425041082914D0B6
:100F7000002812D105984268012001048A4208D055
:100F800005231B049A4200D0DAE082043B68134335
:100F90003B603A680A433A60DBE03868800304D576
:100FA00005984068002800D173E105980078800713
:100FB00023D40598007800070CD5B8683821014083
:100FC000182971D1386E800704D5059880690028EA
:100FD00000D15EE1059A1078400700D42EE1B86890
:100FE00038210140202974D1F86D800700D425E113
:100FF0009068002800D021E14BE1B9683820084012
:1010000010214140FA6803252A4002235340CA18A0
:1010100051425141002820D000291ED13868059A3C
:10102000D168002900D1A2E00721C90288431169D3
:1010300001433960012001023A680A433A608402A0
:10104000FFF7B2FC06463868204200D0A1E0FFF767
:10105000ABFC801B0228F6D963E139684905059B82
:1010600003D5D968002900D113E17F2109027A68EC
:101070008A43596909021143796000280DD107207C
:10108000C0023968814318690843386038688004B1
:10109000400FAA49C140AA480160AA480068FFF76A
:1010A000A7FC002885D0F4E0386E059989690029ED
:1010B00079D0012108433866FFF776FC0646386E82
:1010C000800787D4FFF770FC801B03250228F6D920
:1010D00027E1012003900107F86B0840029006D138
:1010E000F86B0843F863F86B084006900698019186
:1010F00095480068C00513D4039804029249086813
:1011000020430860FFF750FC06468F4800682042E5
:1011100006D1FFF749FC801B03250228F5D900E121
:1011200005988068894C012805D005285AD1F86DAA
:1011300004210143F965F86D03990843F8655BE004
:101140003B688B433B6081043B688B433B60002AD8
:101150003AD04404FFF728FC06463868204200D005
:1011600023E7FFF721FC801B6428F6D9D9E0012191
:101170000A02904338608C02FFF716FC0646386876
:10118000204200D115E7FFF70FFC801B0228F6D99B
:10119000C7E07F200002796881430598406900021A
:1011A0000843786005E7012188433866FFF7FCFBB8
:1011B0000646386E800700D40CE7FFF7F5FB801B6E
:1011C00003250228F5D9ACE04404FFF7EDFB064601
:1011D0003868204200D1E8E6FFF7E6FB801B642870
:1011E000F6D99EE0F96D039A9143F965F96D0422F1
:1011F0009143F96500280CD0FFF7D6FB0646F86D41
:10120000800713D4FFF7D0FB801B0325A042F6D93B
:1012100087E0FFF7C9FB0646F86D800706D5FFF7A4
:10122000C3FB801B0325A042F6D97AE00298002870
:10123000059A03D1F86B01998843F863D469002CAF
:1012400076D0B86838210140102926D1012C20D051
:10125000F86803210140059B1A6A914219D1702157
:1012600001405A6A914214D17F21090201409A6AD1
:10127000120291420DD11F2149040140DA6A9142C4
:10128000049D4ED1072149070840196B884248D177
:101290004EE0049D284607B0F0BD012529063868B8
:1012A000049188433860FFF77FFB0646022C0BD180
:1012B00003956C063868204211D0FFF775FB801B40
:1012C00003250228F6D92CE06C06386820422BD082
:1012D000FFF76AFB801B03250228F6D921E0F86896
:1012E0001C490140059E20366DCE0843104319026B
:1012F000014329433143F960386804990843386051
:1013000003980007F9680143F960FFF74DFB0646B3
:10131000386820420CD1FFF747FB801B03250228C9
:10132000F6D9284607B0F0BDF86809490140F960D0
:101330000025284607B0F0BD001002400024F4004C
:101340000800002004000020007000408813000006
:10135000FCFFFEEF8C80C11F401E010E01D001205A
:1013600070470749074A5060074803680B4003214C
:1013700089075918016000209060072111607047AB
:10138000FFFFFF0010E000E020ED00E0B0B5842199
:10139000415C012901D10220B0BD024684322421E2
:1013A000516001680B680C680125AC430C606C0748
:1013B000A3430B6000214166117020205060084655
:1013C000B0BD0000F0B581B0054668352A7F012A1E
:1013D00002D1022001B0F0BD24222A6206683768DB
:1013E00032680124A243326007225206B368934355
:1013F0000B43B360406E0028204615D00097B768B5
:10140000B068400F2B49095C2B4A105CC00000F00B
:1014100065FE04463801009F400F2649095C264AB4
:10142000105CC00000F05AFE28806C8037600020FD
:1014300028772021296201B0F0BDC046F0B581B007
:10144000054668352A7F012A02D1022001B0F0BD8D
:1014500024222A620668376832680124A243326077
:1014600007225207B36893430B43B360406E0028D2
:10147000204615D00097B768B068400F0D49095C49
:101480000D4A105CC00000F029FE04463801009FA0
:10149000400F0849095C084A105CC00000F01EFEBD
:1014A00028806C803760002028772021296201B0D5
:1014B000F0BDC0468823000880230008F0B583B043
:1014C000002841D00446074684377868002804D1B4
:1014D00000203870204600F059F8242078602068F9
:1014E00001680125A9430160204600F0CDFB0128D9
:1014F00027D0A06A002802D0204600F05CFB09201B
:10150000C00221684A6882434A6088682A22904360
:10151000886008680126304308600025FD60FFF7F9
:1015200043FA034620680168090713D5164800905E
:10153000710500222046029300F05CFC002807D0D1
:101540000325284603B0F0BD0125284603B0F0BDB1
:101550002068029B006840070CD50B480090B1053D
:101560000022204600F046FC002803D00325284630
:1015700003B0F0BD20207860B860E5663D70256757
:10158000284603B0F0BDC046FFFFFF01B0B58CB0E8
:101590000024069405940494039400681549884235
:1015A00001D00CB0B0BD02940125019501A8FFF750
:1015B000B3FA002801D0FFF711F9A803F949CA6866
:1015C0000243CA60CA680240079207980220089046
:1015D0000A6802430A600968014000910B940A946A
:1015E0000994C02007900098034807A9FFF70AF95B
:1015F0000CB0B0BD0038014000040050F0B585B01B
:10160000074604465434606B202812D10126002975
:101610000CD01546002A09D001263203B868904242
:101620000BD1C80709D03869002806D1304605B06B
:10163000F0BD0226304605B0F0BD019103930026AF
:10164000E663212060630292FFF7AEF904906580A3
:101650002580B8680299884202D13869002802D0F2
:101660000296019E02E000260198029003990CE088
:10167000029A10881849084039688862921C0292C0
:101680002E4603996088401E60806088002810D034
:1016900000918021002538462A46049B00F0AAFBD1
:1016A000002810D1002EE3D0307839688862761C8B
:1016B000E7E700914021002638463246049B00F0BF
:1016C00099FB002803D00326304605B0F0BD20204A
:1016D0006063304605B0F0BDFF010000FEE7F0B5E5
:1016E00083B00B68002B5AD000220191029016E0C3
:1016F000764376430F2171438C4377432743029E01
:10170000F750019D009B69684843316819400143C7
:1017100031602B682946521C1C46D4403FD001241E
:1017200094401C40F7D04868431E022B009020468E
:1017300015D260438F6847430325454302998E685D
:10174000AE433E4302998E600199CE68664302998A
:101750004F68A74337430199029B5F6002E06043F3
:1017600003254543EB430D460E6946430299CF6876
:101770001F4037430299CF60029E00990229C2D1CF
:101780000093260A01D0242300E0202301994F6909
:101790000299CC58002EABD106464643AAE700205A
:1017A00003B0F0BD70B50268012352061A4629D471
:1017B0000268174C14400A6822434C681443CA68F4
:1017C00022430C6914438A692243CD6915434A694F
:1017D00015430C6A2543056045680E4E2E40120CD9
:1017E00032438D682A434260EA0A04D1012212037F
:1017F000456815434560012255030022AC4201D1E2
:10180000898C0161D902C3698B43C361104670BDE5
:101810004000FFFFFBF0FFFF10B504681D4A904237
:1018200002D01D4B98420FD170239C434B68234339
:101830001A4CA0420CDD904210D06E4CA0420DD04C
:10184000174CA0420AD023E02346144CA042F2DCFD
:10185000114CA04202D0134CA04219D103242402FF
:10186000A343CC681C4304608B68C3620B8883620B
:10187000904205D05F4A904202D0094A904201D17D
:1018800009690163416901220A434261002010BDD8
:101890001C46E8E7002C014000040040FF2B0140FB
:1018A000004401400020004080B588B0002106912E
:1018B0003C48026802231A43026002681A400792F9
:1018C000079A026801231A430260006818400790D3
:1018D0000798052000078362059104910391029304
:1018E000019301A9FFF7FBFE08B080BDF0B593B0EE
:1018F00001220292130301932A48C1681943C1606F
:10190000C168194009910999016811430160006893
:101910001040099002260496039600270597069723
:101920000797089709980520040703AD2046294624
:10193000FFF7D5FE059704960298C002039006971C
:101940000797089720462946FFF7C9FE0597049692
:101950000198039006970797089720462946FFF7B6
:10196000BEFE072012901197109720200F9002982A
:101970000D900C960F2000020B90099741208000DB
:101980000A90FC300E90084C201F09A9FFF70AFFAF
:101990002068102188432060206808218843206047
:1019A00013B0F0BD341002400430014010B586B0D1
:1019B0000020009001218A040C4B19681143196022
:1019C00069463F240C801B681340059304900390E4
:1019D000074A029201900598064C2046FFF71CFF2B
:1019E000206880218843206006B010BD401002406E
:1019F000E70300000048014010B5174800210C2201
:101A0000F24B016241628162E124640218C001600C
:101A100041608160C260016141610838FFF74EFD9D
:101A2000002801D0FEF7DAFE0B480021FFF706FD83
:101A3000002801D0FEF7D2FE07480021FFF7C2FCC4
:101A4000002801D0FEF7CAFE0348FFF79FFC0028DC
:101A500001D0FEF7C3FE10BDC400002070B50446DF
:101A6000808AE082094D2E68216A20468847608A74
:101A7000E189081AA082E18A401A20832868811B24
:101A800003A0FEF7F3FBA08A70BDC04624480140C6
:101A9000256475730D0A00004182704770B50446D5
:101AA0004068A168816220680321274D2A4600F022
:101AB0004FF820736068A168816181622068042109
:101AC0002A4600F045F860736068A1688161207B58
:101AD000012203461340617B0D4615408E07F60F29
:101AE000AD194E07F60FAD190E07F60FAD19CE065C
:101AF000F60FAD198E06F60FAD194E06F60FAD199D
:101B0000CE09AD19EB188507ED0F5B194507ED0FF1
:101B10005B190507ED0F5B1905095B1945095B1991
:101B200085095B19C5095B19DB0709D122740222FB
:101B30000A406274FC220A4000028018E08170BDF5
:101B40000020207470BDC046FFFF0000FEE7704714
:101B50008268920708D48268920705D48268920747
:101B600002D482689207F3D50122D20309021143FD
:101B700081818168090612D5816809060FD58168BF
:101B800009060CD581680906F3D408E08168C90705
:101B900008D18168C90705D18168C90702D1816868
:101BA000C907F3D0C06880B27047704780B5FEF7B0
:101BB000FFFE80BD7047B0B5816ACA070CD18A07A5
:101BC00014D44A071CD40A0724D4CA062CD48A0683
:101BD00034D44A063CD44CE00122520403685C68C9
:101BE0009443C26A22435A608A07EAD5012212044A
:101BF00003685C689443026B22435A604A07E2D54B
:101C00000122920403685C689443426B22435A6049
:101C10000A07DAD50122D20303685C689443826B19
:101C200022435A60CA06D2D50122120303689C6877
:101C30009443C26B22439A608A06CAD5012252039A
:101C400003689C689443026C22439A604A0610D54C
:101C500001221305026854689C43456C2C43546070
:101C60009D4206D103235B0554689C43836C234348
:101C70005360090607D50121C904026853688B43E4
:101C8000C06C18435060B0BDF0B581B00446006828
:101C900001684B4A0A40A16823690B4361691943F3
:101CA0001143E269114301600321090343688B4337
:101CB000E16819434160A169236A0B438168414D82
:101CC0000D401D438560C36A0F218B43616A0B433E
:101CD000C3623D4B984209D03C4B984208D13C48E6
:101CE00000688007000F3BA31F5802E0002700E0B8
:101CF0001027264668360125EB033A489A4210D150
:101D0000082F55D87F443F797F00BF4404512351A9
:101D10001C5151512200FFF7BBF8002817D0616A0F
:101D200018E0082F44D8C0467F443F797F00BF4465
:101D3000043F2D3F263F3F3F2C00FFF7A9F8002826
:101D400021D0616A22E0FFF7B5F80028E7D100252D
:101D50002EE018464900244A515A00F0BFF94000CD
:101D600061684A08101800F0B9F90246103A1F4994
:101D70008A421DD201400007400F084315E0FFF7DB
:101D800099F80028DDD1002512E018464900164ACE
:101D9000515A00F0A3F961684A08101800F09EF942
:101DA00001461039114A914202D22168C8600025CB
:101DB0000F48306000206067A067284601B0F0BD82
:101DC000F369FFCFFFF4FF110044004000380140E9
:101DD0005410024000000000040000000200000057
:101DE000080000000024F40068230008F0FF000051
:101DF00001000100F0B587B015460E46044607689D
:101E0000F9693140891B4A424A410020AA4224D143
:101E100006930494224684320C9C002C1FD0611C33
:101E200044D1F9693140891B4A424A41AA4214D13E
:101E3000F9693140891B4A424A41AA420DD1F969E8
:101E40003140891B4A424A41AA4206D1F9693140D0
:101E5000891B4A424A41AA42E3D007B0F0BD03922F
:101E6000FEF7A2FD049FEFF31081012080F310889C
:101E70000D2252013B681C6894431C6081F310885A
:101E8000EFF3108180F310883A689368834393607E
:101E900081F310882020039A5060104608300021FA
:101EA000117020210160032007B0F0BD0392029061
:101EB00001200190C0020590049F06E0C0693040F7
:101EC000801B41424141A9422DD1FEF76DFD06998B
:101ED000401AA042C7D8386801684907EED5C169E1
:101EE000059A1142EAD005990162EFF31080019C36
:101EF00084F310880D2149013A6813688B431360FD
:101F000080F31088EFF3108084F3108839688A68B2
:101F1000A2438A6080F310882020039A506090606A
:101F200010460C30BBE7029807B0F0BDFEE780B565
:101F300000F0C6F880BD0020C043704780B500F0B7
:101F4000BFF880BD92B0FEF73DFD00260B960A96C5
:101F5000099608960796069601246002FEF79CFDF6
:101F6000600711906004109008200F900E960225D3
:101F70000D950C9540200A90099620020890059531
:101F800005A8FEF7DBFF002803D0EFF3108072B640
:101F9000FEE70496039607200190029501A82946C2
:101FA000FEF778FE002803D0EFF3108072B6FEE74C
:101FB000FFF77AFCFFF79AFCFFF71EFDFFF7F6FC30
:101FC000052001070B48224600F01EF805460A4886
:101FD00001682143016009A4696A28468847A98AE3
:101FE0002A7C6B7C2046FEF741F96420FEF7FAFB61
:101FF000F2E7C04600300140004801402534782017
:1020000025642025640D0A00F0B581B016460F4600
:1020100005462820FEF7D3F80446002812D01848B9
:102020001849194AE26121626062A0C426602868EA
:1020300040210143296015A0083CFEF737FA2046ED
:1020400001B0F0BD02A0FEF731FA204601B0F0BDAC
:102050005741524E3A204D61676E657469635F5314
:10206000656E736F7220696E697469616C697A61FB
:1020700074696F6E206661696C65642E0D000000E6
:102080005D1A00089D1A0008991A0008494E464F2B
:102090003A204D61676E657469635F53656E736F57
:1020A0007220696E697469616C697A6174696F6EB6
:1020B000207375636365656465642E0D0000000020
:1020C00080B582B00190044801A901220223FFF7E4
:1020D00095FA019802B080BDC400002043088B42ED
:1020E0001AD3002203098B4279D3030A8B425ED3B1
:1020F000030B8B4242D3030C8B4227D30902FF22EE
:1021000012BA030C8B4202D31212090203D0030B42
:102110008B4233D31AE0D3E0411A8041401C704710
:1021200003460B4371D443088B42F5D300220309C5
:102130008B4254D3030A8B4239D3030B8B421DD3FA
:10214000030C8B4202D394466EE0090AC30B8B4208
:1021500001D3CB03C01A5241830B8B4201D38B03B3
:10216000C01A5241430B8B4201D34B03C01A524158
:10217000030B8B4201D30B03C01A5241C30A8B429B
:1021800001D3CB02C01A5241830A8B4201D38B0286
:10219000C01A5241430A8B4201D34B02C01A52412A
:1021A000030A8B4201D30B02C01A5241CDD2C3099C
:1021B0008B4201D3CB01C01A524183098B4201D318
:1021C0008B01C01A524143098B4201D34B01C01A03
:1021D000524103098B4201D30B01C01A5241C3087B
:1021E0008B4201D3CB00C01A524183088B4201D3EA
:1021F0008B00C01A524143088B4201D34B00C01AD6
:102200005241411A524110007047CA0F00D0494252
:10221000031000D34042534000229C4603098B42E6
:102220002DD3030A8B4212D38901FC2212BA030A6E
:102230008B420CD3890192118B4208D389019211F0
:102240008B4204D3890137D0921100E08909C30978
:102250008B4201D3CB01C01A524183098B4201D377
:102260008B01C01A524143098B4201D34B01C01A62
:10227000524103098B4201D30B01C01A5241C308DA
:102280008B4201D3CB00C01A524183088B4201D349
:102290008B00C01A5241D9D243088B4201D34B0064
:1022A000C01A5241411A00D20146524110466346BB
:1022B0005B1000D34042704763465B1000D340423E
:1022C00001B50021004201D0C9430846C046C046BE
:1022D00002BD30380A2801D2012070470020704723
:1022E000303132333435363738394142434445464C
:1022F0004030580030313233343536373839616246
:102300006364656640307800000000000000000053
:1023100000000000000000000000000000000000BD
:1023200000000000000000000100000002000000AA
:102330000300000004000000060000000700000089
:10234000080000000900000000000000000000007C
:10235000000000000000000001000000020000007A
:102360000300000004000000010002000400060059
:1023700008000A000C00100020004000800000014E
:102380000101010307010000080402040801010122
:10239000B023000800000020100000000401000825
:1023A000C023000810000020500700002001000892
:1023B00001000000040000000024F4000000000000
:04000005080000C12E
:00000001FF
