:020000040800F2
:10000000D00F0020990100085D2D0008791C000820
:1000100000000000000000000000000000000000E0
:100020000000000000000000000000007B2E00081F
:100030000000000000000000112E00087D2E0008C6
:10004000AB01000800000000AB010008AB01000894
:10005000AB010008AB010008AB010008AB010008D0
:1000600000000000AB010008191C0008011C00087A
:10007000451B0008552F0008812F000800000000D4
:10008000AB0100080000000000000000AB01000808
:1000900000000000AB010008352F0008AB0100088C
:1000A000AB010008AB010008AB010008E52F000818
:1000B000AB0100080000000000000000000000008C
:1000C00000F002F800F058F80CA030C808382418E6
:1000D0002D18671EA246AB4654465D46AC4201D180
:1000E00000F04AF87E460F3EB6460FCC012633425A
:1000F00000D0FB1A3343A246AB461847004200002B
:1001000020420000103A02D378C878C1FAD85207CA
:1001100001D330C830C101D504680C6070470000BD
:100120000023002400250026103A01D378C1FBD813
:10013000520700D330C100D50B60704710B5662957
:1001400002D103F04DFE10BD002010BD1FB5009878
:10015000019900F0B2FB00F059FE040000200021DC
:1001600003F0D0FD401C60600020002103F0B4FDCE
:10017000E0601FBD10B510BD01F0F6FB1146FFF7A2
:10018000E5FF03F0FDF801F017FC03B4FFF7F2FF01
:1001900003BC02F0C3FF0000074880470748004740
:1001A000FEE7FEE7FEE7FEE7FEE7FEE70448054957
:1001B000054A064B70470000192F0008C1000008CF
:1001C000D0030020D00F0020D0070020D00700204F
:1001D000704770B5064600F053FB056830460B309B
:1001E000C408E400B44201D8002070BD68682A4603
:1001F000002818D00168A14211D30B4621460831CE
:100200008B4208D3436801194B6003681B1B0B60CA
:100210005160046001E041685160001D70BD0246FC
:1002200040680028E6D12146284600F031FB00282E
:10023000DCD170BD70B50446051F00F021FB0068DD
:10024000002C1AD0446801E020466468002C01D0DC
:10025000AC42F9D301680A18AA4204D12A680546BB
:100260008918016000E0456028684119A14205D164
:100270006168696021684018286070BD6C6070BD5D
:100280004343514330B55C18010C130C0D4692B238
:100290005D4380B251432C19054655430A0C0904AD
:1002A0004D1962415843010C00044019514130BDC1
:1002B0000FB41CB5084B06AA7B446946009005980C
:1002C00000F03FFD04460020694600F04DFD204649
:1002D0001CBC08BC04B01847AD0A0000F3B50446C6
:1002E000002081B020622046E168884700287DD048
:1002F000252802D06268A16883E0454F00257F442D
:100300002046E16888472028064608DB312E06D2C1
:10031000B81920380078002801D00543F0E7A80775
:1003200001D5042085430020E0610746A0612A2E04
:100330000AD0304603F0C8FC002827D0B8000019C6
:10034000303E0090866119E00298BA00121902C886
:10035000916102902046E1688847012F064617D137
:10036000E06900281FDA202085431CE000980A215C
:100370008069484300998019303888612046E168D7
:100380008847064603F0A0FC0028EFD1012F0AD0D1
:100390002E2E08D12046E1688847064620200543D6
:1003A0007F1C022FC3DBA069002803DA4042A06152
:1003B00001200543E80701D010208543002E24D0FA
:1003C00030464138192803D80120C00205432036A1
:1003D000204625603146029A1546FFF7AFFE0028F9
:1003E0000CD0012807D0ED1DE80800E00DE0C000AA
:1003F0000830029077E72D1D029574E76268304659
:10040000A1689047206A401C6CE7206AFEBD00008E
:10041000EE3A00000FB400B58DB010A909900B9012
:100420000020C04300910A9000200C9007487844B7
:100430000690074878446A4607900F9909A800F08B
:10044000ADFC0DB008BC04B0184700008F090000D7
:10045000A9090000FFB51D460027FF4383B05C6873
:10046000002001909E68A96904987F1C884700902D
:10047000296A88470028F6D10098401C0CD0032038
:1004800040028443002E19DD600614D500982B2805
:1004900009D02D280FD103E00020C04307B0F0BDE4
:1004A000012080020443A96904987F1C8847761EB6
:1004B000002E009002DD0098302803D00598002817
:1004C00025D035E00120A96940020443761E049836
:1004D0007F1C8847002E009003DD782805D058281F
:1004E00003D00598002810D022E00598002801D0FC
:1004F00010281DD10120A96940028443761E04986A
:100500007F1C88470090102002E0082000E00A20AD
:1005100005900DE00121059A49020C430199761ED0
:10052000514308180190A96904987F1C88470090DE
:10053000002E05DD0599009800F01BFC0028E9DA83
:10054000E96904988847A00502D40120C043A5E7C3
:10055000E00722D1600611D56005019800D5404220
:1005600029680A1D2A600968220501D5087014E06F
:10057000220701D5088010E008600EE02868011D00
:1005800029600068210502D50199017005E0210765
:10059000019901D5018000E0016038467EE7000046
:1005A00010B5044603E002F0E7FE401C08D02078B6
:1005B0000549641C0028F6D10A2002F0DDFE10BDBA
:1005C0000020C04310BD00007401002001E004C001
:1005D000091F0429FBD28B0701D50280801CC907A3
:1005E00000D00270704700290BD0C30702D0027000
:1005F000401C491E022904D3830702D50280801CB7
:10060000891EE3E70022EEE70022DFE7002203096C
:100610008B422CD3030A8B4211D300239C464EE01D
:1006200003460B433CD4002243088B4231D30309D9
:100630008B421CD3030A8B4201D394463FE0C3098B
:100640008B4201D3CB01C01A524183098B4201D3A3
:100650008B01C01A524143098B4201D34B01C01A8E
:10066000524103098B4201D30B01C01A5241C30806
:100670008B4201D3CB00C01A524183088B4201D375
:100680008B00C01A524143088B4201D34B00C01A61
:100690005241411A00D201465241104670475DE076
:1006A000CA0F00D04942031000D3404253409C4639
:1006B000002203098B422DD3030A8B4212D38901F6
:1006C000FC2212BA030A8B420CD3890192118B428D
:1006D00008D3890192118B4204D389013AD0921137
:1006E00000E08909C3098B4201D3CB01C01A5241F2
:1006F00083098B4201D38B01C01A524143098B42BB
:1007000001D34B01C01A524103098B4201D30B01A3
:10071000C01A5241C3088B4201D3CB00C01A5241C8
:1007200083088B4201D38B00C01A5241D9D24308AF
:100730008B4201D34B00C01A5241411A00D20146EC
:100740005241104663465B1001D34042002B00D556
:100750004942704763465B1000D3404201B50549EA
:10076000002802DC491C084000E00846C046C0469C
:1007700002BD00BFFFFFFF7F70477047704700005A
:100780000121C9050123411842001B06D3185B0E45
:100790000AD0C1100722D206891840075242D1421E
:1007A00001D5520089187047090208D50146002A70
:1007B00003D0C10FC907002070471046704742029E
:1007C00002D0002002497047072109050143F4E7E0
:1007D0000000F87F10B501469E240002CA15A30749
:1007E000002A02D01843002A04DBA21A002A0CDDDA
:1007F000D04010BD1206120E01D140004008A21ACE
:1008000003D4D04040420028F3DDFF224800120606
:10081000904201D9002010BDC817C043584010BDF8
:100820001F22030C02D10F2200041CD0030E01D1A1
:100830000002083A030F01D10001121F830F01D1FA
:100840008000921E002801DB4000521ED205511884
:10085000021251181922904004D3491C002801D1DA
:100860004908490008467047C10FC90700D04042F7
:10087000012292071143D3E701218907D0E770478E
:10088000004870471001002070477047704770475C
:1008900038B504460A4600206946C046C0460028CE
:1008A00005D002462046009900F0B4FA012038BD78
:1008B00010B5012001F03EF810BDF8B5C046C046A5
:1008C000054600200C461020C0460646A819A04246
:1008D0000DD9324669460020C046C046070001D106
:1008E00001F028F80098A04200D00546C419FFF78F
:1008F000C7FFF61D07460560F008C00046192846E8
:1009000000F008F8B44204D031463868A21B00F069
:1009100081FAF8BD002101604160806070471020BD
:1009200070470000FFB50C461E468FB003CA089002
:1009300009914F007D0D00D16D1E00210846002059
:10094000C0460321099A89050840002A03DA82007B
:10095000801840080840800D01280A9002DD002020
:10096000C0430A90089807430DD0F048F049281872
:1009700048430714189800281DD07542291E1DDD14
:100980000A9842421BE01898012802D0002030212A
:1009900004E00020F24305E02154401CB042FBDBA0
:1009A00030460022189B002121540F998B600A6069
:1009B000486013B0F0BDBD1B6D1CDFE70A9A00292B
:1009C00000DA69420BA800F089FC0BAB07CB03AB44
:1009D00007C30899099800F0EDFC6B4607C3014670
:1009E000D4480918002D00910BDDD24903980A9ACA
:1009F00049424018002303A90390684600F04AFFCB
:100A000008E003990A9A0023081803A9039068468E
:100A100000F0EAFE6B4607C30004000C03D0002080
:100A2000C043410800E01046189A002A03D0002273
:100A3000009215461EE0751E05D400F005FA30320E
:100A400062556D1EF9D501220843079602D0002297
:100A50007F1C04E02078302801D100227F1E002A6C
:100A6000069787D01EE0112D07DA00F0EDF930323D
:100A700062556D1C02460A43F5D1084303D0009825
:100A8000002819D00EE00021681E05E0235C625C9E
:100A900063542254401E491C8142F7DBA81B401EB0
:100AA00007950690079A18990020A0540F98079B65
:100AB000069A81600CC07CE711260020189059E747
:100AC000D21DF0B50D460446D10893B0C90003C944
:100AD0000C900D9103F0E2F802460D98C00F01D082
:100AE0002D2007E02068810701D52B2002E0400778
:100AF000C00F4001032A0F9001D0072A05DB0346EF
:100B00002946204600F0E6F90EE12078800601D55E
:100B1000E76900E006272846652D04D0662814D032
:100B2000672D69D12DE00020112F009001DB1123EA
:100B300000E07B1C0CAA03A910A8FFF7F3FE119993
:100B4000002610987D1C0E9142E001203B460CAA25
:100B5000C0070B900120009003A910A8FFF7E2FE48
:100B6000119D12981099002600280E9501D1781C2D
:100B70000D18781B02D446427D1C761EE81B00909F
:100B80003AE0012F00DA01270020112F009001DD4B
:100B9000112300E03B460CAA03A910A8FFF7C2FEF0
:100BA00011993D46109800260E91217809070BD423
:100BB0000E99A94200DA0D4603A9012D04DD4A1958
:100BC000203AD27F302A06D0B84201DA011D04DA79
:100BD000012100910FE06D1EEFE7002802DC86196D
:100BE0002D1A03E0411CA94200DD0D46801B401C6C
:100BF00000900120C0070B902078000705D40098D2
:100C0000A84202DB0020C043009069460020C87261
:100C10000B98012102AF0337C907884225D0022073
:100C200010902B2011900B9800280BDA40420B906B
:100C30002D20119006E00B9800F082FE30317F1ECF
:100C40000B9039701099481E00291090F3DC0B9816
:100C50000028F0D111987F1E38702088000501D53A
:100C6000452000E065207F1E387001A8C01BC01D14
:100C70000B900F98002800D0012041190098C01750
:100C800009180B980818A169081A401EA06120785D
:100C9000C00602D42046C046C0460F98002805D0A2
:100CA0006268A1689047206A401C20622078C006D4
:100CB00025D52046C046C04621E0002E07DB0E9811
:100CC000B04204DD03A86268805DA16802E062684A
:100CD000A16830209047206A761C401C2062009852
:100CE000401E002800900AD100F090F8C0686268A9
:100CF0000168405CA1689047206A401C2062284639
:100D00006D1E0028D9DC07E062683878A1687F1C76
:100D10009047206A401C20620B99481E00290B90C6
:100D2000F2DC2046C046C046032042E601FCFFFF3D
:100D3000104D0000E1DFFFFF01694A1C02610878E5
:100D4000704700B58FB002910021059105490193CC
:100D500079440391114604906846FFF7BFFA0FB03B
:100D600000BD0000E5FFFFFF0A681070521C0A601A
:100D700070473A2800D23038202302469A43412A4D
:100D800001D310463738884201D30020C043704752
:100D900002685118137801601846704710B5D16089
:100DA0000549794451610549794411620021116175
:100DB000114600F0D3F810BDEBFFFFFF1701000054
:100DC0004268002A08D001680B78491C002B03D028
:100DD000521E06C0184670470121C160881E704728
:100DE0004268002A0BD0C3680168002B07D18368D2
:100DF0008B4204D0491E521C06C0002070470020C0
:100E0000C043704700487047080100200048704701
:100E10002801002010B50346406801E00346406801
:100E2000002801D08842F9D31868C3188B4206D035
:100E3000CB1CD808C000001D411A521A0146081DDB
:100E40000A60FFF7F7F910BD0B4670B50246890737
:100E50008008084319469D08141AA9412509080766
:100E6000054308092C194841250A01060D43010ACA
:100E70002C194141200C0D0428430D0C00194D4143
:100E8000002140194D41C00869070843E908840F53
:100E90008D002543840024184D4124196D41121BF7
:100EA000AB4107E00925ED432C11521963410024A1
:100EB000401C61411C460A250026551BB441F1D255
:100EC00070BD10B5044600F06FFD0068005DC007FE
:100ED000C00F10BDF8B51F46044601230068DB02B1
:100EE000032601461840072A05DB002801D017A574
:100EF00006E017A504E0002801D016A500E016A51D
:100F0000102081432160A069C01E002FA06101D084
:100F1000401EA0612046C046C046002F09D038467A
:100F20006268A1689047206A401C2062C01C206251
:100F300006E0206AFAE762682878A1686D1C90478D
:100F4000761EF8D22046C046C046F8BD4E414E003F
:100F50006E616E00494E4600696E6600F3B50C4640
:100F60008FB000200C90012000260E9008460C3017
:100F700003906269039801219047051E2ED0252D0C
:100F80002DD0216A8847002818D062690398012172
:100F90009047216A88470028F7D16269411E03986B
:100FA000904700E0761CA1690F988847216A88471E
:100FB0000028F7D1E1690F988847DAE7A1690F980F
:100FC0008847A842074601D1761CD2E7E1690F980D
:100FD00088477F1C02D10C98002877D06BE16269AA
:100FE000039800273D46394690472A280CD162696C
:100FF000039801219047012506E00A214F433F183D
:10100000303FEBD4102005436269039801219047DB
:10101000014630390A2903D2AC498F42DEDCECE7C5
:10102000E90600D4AA4F6C280AD04C2810D06828B2
:1010300024D06A282ED074280CD07A280AD00DE04B
:1010400062690398012190476C2823D004211CE099
:10105000202005436269039801219047A760652815
:1010600065604FD026DC582839D01ADC452849D095
:1010700012DC252834D04128B0D143E062690398BE
:1010800001219047682802D008210D43E6E701209E
:10109000C002DEE70220DCE7462833D047289DD196
:1010A00030E05B2870D061282CD063286CD0642895
:1010B00094D161E06F284FD009DC662822D06728E0
:1010C00020D0692826D06E2817D12EE0EFE07028B6
:1010D0004DD073286FD075284ED078280DD154E0AC
:1010E000A1690F9888472528054600D16CE7E1697A
:1010F0000F9888476D1C00D16DE7DCE00A224CE0B8
:101100000A2252E0012023466A460F99C043C04696
:10111000C046C5E040212846234608436060A80732
:1011200001D5002239E000223FE0E80700D020E7A7
:101130002068011D21600068290501D5067018E7A7
:10114000290701D5068014E7A90703D5F117066022
:1011500041600EE706600CE740212846234608431D
:101160006060A80701D5082217E008221DE0594950
:1011700028460840606016E0402128462346084380
:101180006060A807BCD5B9E715E0402128460843B0
:101190006060A80707D52346102201200F99C0439D
:1011A000C046C0467CE01022234601200F99C04370
:1011B000FFF750F974E0002163280B46019100917C
:1011C00002910D9102D05B2807D03BE0E80601D4E4
:1011D0000120A0600120009034E0E06801210D9022
:1011E0006269039890475E2807D101200190E0686A
:1011F00001210D906269039890472169002906D169
:101200000B4604AA8F00491C0829D351FADB002899
:1012100051D02169002926D00298401C02906269B1
:101220000398012190475D28F1D10198002808D04A
:10123000002004AB8100401C5A58D24308285A5061
:10124000F8DB04AB2069002820791CD04007029A03
:1012500000980D9B0092224602901F480F991DD5C1
:10126000C046C0461CE0C117C90E09184A114909F9
:10127000930004AA9A184901411A13680120884072
:1012800003431360CBE74007224613480F9902D56A
:10129000C046C04604E0C046C04601E0C046C04665
:1012A00000280ADA401C06D10E98002803D000203E
:1012B000C04311B0F0BD0C98FBE7E90702D10C99CF
:1012C000491C0C91361800200E9052E6CCCCCC0C68
:1012D000FFFFFF7FF1F7FFFFFEFFFFFFF7B51646A9
:1012E0008AB0334878446C4603467C33C06F5A68F2
:1012F0009B680DC42E487844763003AC0DC80DC4ED
:101300003720C001081837211B30FFF789F905463F
:101310000C46803D1B3C02D56442012000E00020C9
:101320000027099010E0E0070CD00C2020497843FA
:10133000794432464C3941186846012300F054FA8A
:101340006B4607C364107F1C002CECD1184F7F4400
:101350002E3F16E0E80712D02001C0190EC80691F2
:10136000089307920068F04201D19819089032461C
:10137000012306A903A800F037FA03AB07C36D10D9
:10138000641C002DE6D10998002806D03246694633
:10139000012303A800F07EFA05E0012332466946E6
:1013A00003A800F021FA0A9B07C30DB0F0BD0000AE
:1013B0001C2B0000034640000A4610B5400D0BD020
:1013C0000121C9070F24A40200191C03640821434A
:1013D000540D2143D20207E000210120F2E7D40F8F
:1013E000490021435200401E0029F8DADB0FDB07D9
:1013F000184310BDFFB50D46144685B048685168C6
:1014000002F034FC00910190A868A16802F02EFC63
:1014100002910390A868616802F028FC029A1218F1
:101420008242029201D2012000E00020019A0B18B2
:10143000D2180028019202D08A4202D903E08A42DF
:1014400001D2012000E0002000990818009068688F
:10145000A16802F00BFC029A12188242029201D299
:10146000012000E00020019A0B18D21800280192F8
:1014700002D08A4202D903E08A4201D2012000E070
:101480000020009908180090286821684000490051
:10149000400849084018FA49471814E001994000EB
:1014A000C90F08430090019802994000C90F0843F2
:1014B0000190029803994000C90F084302900398D5
:1014C00040007F1E039000980028E7DA0898002863
:1014D00001D0EC4E00E00026B74201DA012000E026
:1014E0000020002804902AD0F71BF806C00E15D063
:1014F000029B2021091A039A8B401A430392029AF5
:10150000019BC2408B401A430292019A009BC24049
:101510008B4000991A430192C14000917B110DD07C
:101520006F460320C11A03D500218200B95003E0A1
:101530008A008100BA587A50401EF3D53746039886
:101540000299002800D00120014308980291002848
:1015500008460CD0002800D001200199019A4905C5
:1015600008430121D20AC902D202019200E00121FE
:101570000E9B0122D207012B02D0002B03D013E0D7
:10158000002807D120E0904204D890420CD1019B62
:101590000B4209D0019B5918019105D10099491CB2
:1015A000009101D17F1C009200280DD01021084627
:1015B0000020C0460498002806D00F98002803D0C9
:1015C000082108460020C04628682168019B009A2F
:1015D0004840C10F0598C90739430EC009B0F0BD96
:1015E000FFB587B0099A08980899536892684068CF
:1015F000896896460022039317469446089A126813
:101600005300099A5B081268520052089A1A9E4BBE
:10161000D4180A9A002A01D0352200E0402206920E
:101620000022012315460492DB07059324E0002DD8
:1016300005D175460346039E4D1BB34109D375463C
:101640006646039B491B049D9841059B7519AC4652
:101650005F4163463B4308D0059B049EDD07760847
:101660002E435B080496059301E0521E641EC50FCD
:10167000ED0749184041521C069B9A42D7DB002DCA
:1016800004D17546039A6B1A824101D203200CE003
:10169000039A0B466B404240134303D0014303D0EF
:1016A000012002E0022000E00020614601910021BB
:1016B000009702910A99002905D061464002014332
:1016C000704B019102E08007002302909C4201DAF6
:1016D000012000E0002007003AD01A1BD006C00EFF
:1016E00015D0029D2021019C091AC5408C4025433C
:1016F000029C8C4000D001242543019C0295009D52
:10170000C4408D4000992C430194C1400091541174
:101710001DD06D460221002202290CD10320001B9E
:1017200007E0002804DB8600AE59002E00D001221D
:10173000401C0328F5DB081B02D588002A5004E072
:101740008000285810438A00A850491EE3D51C4643
:101750000A98002802980CD0002800D00120019996
:10176000019A490508430121D20AC902D202019215
:1017700000E00121109B0122D207012B02D0002B97
:1017800003D013E0002807D11FE0904204D8904214
:101790000CD1019B0B4209D0019B5918019105D135
:1017A0000099491C009101D1641C009200280CD0C2
:1017B000102108460020C046002F06D011980028AE
:1017C00003D0082108460020C04608980999019ACC
:1017D000009B006809684840C10F0798C90721436A
:1017E00082600AC00BB0F0BD00B585B001930092D5
:1017F0000A460146002302A8FFF7FCFD02A807C81D
:1018000005B000BDFFB50A461F4685B00799019394
:1018100001230091014602A8FFF7ECFD029903980D
:10182000049ECA0F4900D20700920F224908920273
:101830008C1A0021002800DB0C46450013486D0877
:10184000844214D3079A002A04DA441E0026104D5D
:10185000F64302E004460D460E46102108460020DD
:10186000C046002F03D0042108460020C0462005B2
:10187000E90A0843009908436905F20A1143ADE6F5
:1018800002C0FFFF013C0000FF3F0000FF07000017
:10189000FFFFFF7F00B585B0019300920A46014625
:1018A000002302A8FFF79CFE02A807C8A8E7FFB51F
:1018B0000A461F4685B0079901930123009101460E
:1018C00002A8FFF78DFE02990398049ECA0F4900F3
:1018D000D20700920F22490892028C1A0021002898
:1018E00000DB0C46450011486D08844214D3079A6A
:1018F000002A04DA441E00260D4DF64302E0044699
:101900000D460E46102108460020C046002F03D089
:10191000042108460020C0462005E90A0843009932
:1019200008436905F20A114358E60000FF0700006A
:10193000FFFFFF7F10B500F04DF800F045F810BD37
:1019400001468008081A02091018020A1018020C31
:101950001018C008820012185200891A01E0401CB9
:101960000A390A29FBD270477546FFF74BFAAE4693
:10197000050069465346C008C000854618B020B52A
:10198000FEF714FC60BCB64600260027C0C5C0C5E3
:10199000C0C5C0C5C0C5C0C5C0C5C0C5403D49085B
:1019A00049008D467047000010B5FFF72FFA001D63
:1019B00010BD00BF5123000010B50446C046C0460C
:1019C0002046FEF7E2FB10BD10B5002801D001F063
:1019D000A5FB10BD10B5012805D0002103A000F023
:1019E00065F8012010BD09A1F8E7000053494752EE
:1019F000544D454D3A204F7574206F6620686561DF
:101A000070206D656D6F7279000000003A204865A6
:101A10006170206D656D6F727920636F7272757081
:101A200074656400024670B50A4392072AD11E4DC0
:101A3000EE0104C808C9541B9443344017D0D0B2F7
:101A4000D9B2401A2106014310D190B299B2401A7E
:101A5000210401430AD110021902000A090A401A9E
:101A60002102014302D1100E190E401A70BD9A4294
:101A7000DFD010BA19BA884201D9012070BD002008
:101A8000C04370BD02780B78401C491C002A09D065
:101A90009A4207D102780B78401C491C002A01D0D9
:101AA0009A42EFD0D01A70BD0101010170B5054610
:101AB0000C460A2000E06D1C01F031FB002D06D021
:101AC00028780028F7D102E0641C01F028FB002CE4
:101AD00002D020780028F7D10A2001F020FB70BD49
:101AE00070B5454C23463833134A9360134B1D6839
:101AF00005262E433A25AE431E60D0605068104B39
:101B000003405818506010680121014311601068AB
:101B100002210143116020680028FCD4022000F05B
:101B200083FC206835490840401C2060206808403C
:101B3000001D206070BDC0461C0002400408024029
:101B40000000FFFF70470000FEB504464E08304617
:101B500001F03CFB0290304601F0E6FA06460190A7
:101B60002089A189081A20826189E289511AA182FB
:101B7000E08242185242628249000818404200B294
:101B80001549164DA8472A4620831625605F314621
:101B9000904700901826A05F029F39460F4A904751
:101BA000009940186083A05F01990C4EB0473246FF
:101BB0000646605F39469047301AA0831A20215E9E
:101BC000206882689047E0831C20215E60688268FC
:101BD00090472084FEBDC046E6490000413400081D
:101BE000C28181817047000003480168034A0A40AE
:101BF000111D01607047C04608240140E8FFFF7FC7
:101C000009480168890405D501214A034260426CF4
:101C10008A4342647047C04603480168890601D57B
:101C2000202141607047C0460000024080B501F0AD
:101C300075F901F005FA06480421016001F0C6FDBE
:101C400004490860016C884703A0FEF7A9FC80BD29
:101C500018000050CC010020464F4320696E697483
:101C600069616C697A6174696F6E2073756363650D
:101C7000656465642E0D0000FEE700008268D207EF
:101C800012D1C268094B13404A681A438B68134348
:101C9000CA681A43C2600322920703699343096822
:101CA000194301610020704701207047C73FFFFFC3
:101CB000F0B5C268C2688268D20713D10122530509
:101CC000C2689202134A0FD54C68F02C0CD1C4683C
:101CD00014400D6825430E460C3654CE2A43224349
:101CE00032430CE0012213E0C46814400D68254320
:101CF0000F460837D4CF2A43224332433A43C260C7
:101D0000C46800221C4203D04968836A0B43836283
:101D10001046F0BD3CC2FEFF81B005490A6802438F
:101D20000A60096801400091009801B07047C04600
:101D300040100240FCB500220C682346D34047D037
:101D4000012393401C4041D04B6801935B1E022B42
:101D500010D2234663438F685F4303255D43866843
:101D6000AE433E438660CE6866434768A743374329
:101D7000476003E02346634303255D43ED430E695B
:101D80005E43C7682F403743C760019E022E17D1BC
:101D9000260A01D0242400E020244F69019404592C
:101DA000002E009502D07643764301E01E465E4346
:101DB0000F257543AC4377432743019C0751009D92
:101DC0004C68634304682C401C430460521CB3E716
:101DD0000020FCBD81B00B490A6802430A60096813
:101DE00001400091009801B07047C04681B005499C
:101DF0000A6802430A60096801400091009801B036
:101E00007047C0463410024080B57D21C900FEF7FE
:101E1000FDFB401E034948600020886005200860E3
:101E200080BDC04610E000E010B5044600F0F2FFAF
:101E300020600A490A6892093C231340294AD25873
:101E40001F231A40D04060600968890A1C220A409A
:101E5000234989581940C840A06010BD08100240AD
:101E600010B5032811D1194C606D032108400904F5
:101E70004018174988420AD0164988420CD01649A2
:101E800088420FD100F0C6FF10BD002010BD012018
:101E9000C103E06D800303E020684005C1170F48CF
:101EA000084010BD00F0B6FFA168A268920A1C238A
:101EB00013400B4AD2581F231A4089093C240C4076
:101EC000084909591940C840D04010BD00100240CF
:101ED0000300030002000300010003000024F400DB
:101EE000D83E0008983E000870B5026801235206EB
:101EF0001A4629D40268174C14400A6822434C68D9
:101F00001443CA6822430C6914438A692243CD6989
:101F100015434A6915430C6A2543056045680E4E12
:101F20002E40120C32438D682A434260EA0A04D1E3
:101F30000122120345681543456001225503002222
:101F4000AC4201D1898C0161D902C3698B43C36161
:101F5000104670BD4000FFFFFBF0FFFF0149086025
:101F60007047C04600000020B0B50468E64A9042C1
:101F700004D01A4DA84206D0234608E070239C43A3
:101F80004B6823430FE070239C434B682343A842D4
:101F900009D0134CA04206D0DC4CA04203D0DC4C4C
:101FA000A0421C4604D103242402A343CC681C4352
:101FB00004608B68C3620B888362904205D0D34A69
:101FC000904202D0D24A904201D10969016341692D
:101FD00001220A4342610020B0BDC0460004004017
:101FE00000200040012811D0042811D0102811D061
:101FF000402811D001210A0290420FD08A0290425B
:102000000ED0090388420DD106200CE000200AE022
:10201000012008E0022006E0032004E0042002E0A2
:10202000052000E0082005A1095C04228A4006A1E1
:10203000085C084943589343435070470000080028
:102040000000080008000000000000000404043C38
:102050003C00000018040040FFB501231C05A1420C
:1020600000D1CEE0102900D1F7E001242502A942D9
:102070003FD02503A9427ED02504A94200D195E096
:10208000012900D03DE1E143036A0B40036213697B
:102090000B40056A0327BD431D4311680391516836
:1020A000294346688569984B984205D0974B9842DA
:1020B00002D0974B984213D13B029E43630254696E
:1020C00002949769D4699F43374366003E430C23CB
:1020D0009943029B5B08DB000B439168890019431D
:1020E00046608D4B1D40039B1D438561D268426352
:1020F00005E1016AA94301628A49491C13691B026F
:102100000B40032102910902046A8C431C431168AD
:10211000039153681B0223434568C4697A4FB84250
:1021200005D07A4FB84202D0794FB84219D10299FE
:102130000F03BD43566901969669D7690097370129
:10214000774E3E402E43009D6D01354389028B43FF
:102150007549091D019EB6020E401E4391688B020F
:10216000334345606C490C4003990C43C461D1680A
:10217000C1630362C4E0016AA9430162016A436862
:1021800016685568039515690295C7695E4DA842A2
:1021900006D05E4DA84203D05D4DA84200D099E024
:1021A000A403A3439469A4011C4394E05A4D7335DE
:1021B000016A29400162016A166853680393146931
:1021C000476D514B984205D0504B984202D0504B2E
:1021D000984205D143682B4095692D021D43456007
:1021E0004D4BDB1C1F4037434765836DD2688265CA
:1021F000032212049143620852040A43039909041A
:1022000029E001273905036A8B430362016A1568D7
:10221000536803931469466D3B4B984205D03B4B82
:10222000984202D03A4B984206D1BB0447689F437C
:1022300093699B023B434360364B1E402B02334362
:102240004365D268C26503221205914362085205B4
:102250000A4303990905114351E0016A1023994388
:102260000162016A3023994313695B085C010C43E6
:10227000176851680901214345688369224EB042BD
:1022800005D0224EB04202D0214EB04219D10326D1
:10229000B602B543546903943E469769D4690294E3
:1022A000BF00214C3C4037462C43029DED002543A6
:1022B000C024A143039C6408E4010C439168890194
:1022C00021434560154C23403C021C438461D26885
:1022D000826314E01C464460104B1F4033023B43B2
:1022E000C361D26802640322120391430C4A103284
:1022F000029B1B0313400B4303990903194301621B
:102300000023184604B0F0BD002C014000480140F5
:1023100000440140FF8FFFFE8CFFFEFFFF8CFFFE9D
:10232000F0DFFFFFFFFDFFFFFCF7FFFFFEB50446F8
:102330000068C00724D10D4620682B490140A868D9
:1023400008432969014368690843E9690143216039
:102350000320010362688A43E96811436160000257
:10236000A1688143A8690843A06001261F488442F0
:1023700008D01F4884422FD10320FFF771FD05E0EC
:1023800001262FE06846FFF74FFD0298002823D072
:102390006F68002F20D0296800260B291CD88900DF
:1023A00014A25158FEF732F90121C903EA698A42A1
:1023B0000BD17908400040183946FEF727F9194932
:1023C00001400007400F401805E0790840183946E1
:1023D000FEF71CF980B2E060E06A0F21884329888B
:1023E0000143E1623046FEBDF369FFEF0044004067
:1023F000003801400100000002000000040000005D
:1024000006000000080000000A0000000C000000A8
:1024100010000000200000004000000080000000CC
:1024200000010000F0FF000081B008490A68009236
:10243000401C01D30020C043009A002804D00A6841
:10244000D203D2171018F8E701B0704710E000E08F
:1024500070B50A4604460026815F104600F0F0FF82
:1024600005460220205EA25F0349514000F0E8FFCC
:102470004019608000B270BDFF7F0000018070478E
:10248000F0B593B000200290089007900690059058
:1024900001263005B449CA680243CA60CA680240CE
:1024A000099209980868304308600868304009902C
:1024B00003270497019710200390099805200090A6
:1024C000040703AD20462946FFF734FC0298079025
:1024D000049720200390074620462946FFF72AFC50
:1024E0003E480168009A11433A22914301603C48FA
:1024F00001683C4A0A400260019B190302688A4352
:10250000026001683C463943016001684022914302
:102510000160016880220A430260190202688A434E
:1025200031025118016001682F4A1140B502491962
:102530000160C1480168FF229143016031030091AD
:10254000BE480160029F129711941097B0070F9038
:10255000264C0FA92046FFF791FB7005E1688143E7
:10256000E16000980E9001980D900C970B97F02069
:102570000A90C035099509A92046FFF799FBE16843
:1025800004208143E1602169B1432161710722691F
:102590008A432261A16A30220A43A262710322683F
:1025A0000A42FCD02160E1680F4A1140F2020A435E
:1025B000E260616931430622914361616168814350
:1025C00061606068082188436060A0680849014034
:1025D00030070818A06013B0F0BDC04604080240E0
:1025E0001C000240EFBFFFFFFFF3FFFF002401408C
:1025F000E8FFFF6F18B50D490A68012002430A6021
:102600000968014000910099FF210A04084B1C68E9
:1026100094438205A2181A608202884C226009063F
:102620001A688A431A60C002206018BD3810024040
:1026300008E400E0F0B587B002271B4C3846A047FD
:10264000042005460090A04701263046A0470520FB
:102650000407A662A56206960025059504950395D4
:102660000297F0030190114801AFD54A39469047CF
:102670000595049503950296019620463946D04A61
:102680009047059504950395029600980190204681
:102690003946CB4EB047059502950820019020465B
:1026A0003946B04707B0F0BDD51D000800080050FE
:1026B000F0B593B001220292130301932A48C16836
:1026C0001943C160C1681940099109990168114312
:1026D00001600068104009900226049603960027C6
:1026E000059706970797089709980520040703ADF3
:1026F000B34A204629469047059704960298C0029F
:10270000039006970797089720462946AC4A9047BA
:102710000597049601980390069707970897204617
:102720002946A74A904707201290119710970298C0
:102730000D900C960F2000020B900997412080000D
:102740000A90FC300E9010240F94084D281F09A900
:10275000FFF7CAFB2868A04328602868082188433F
:10276000286013B0F0BDC046341002400430014070
:10277000B0B586B0002401940125A804FFF7CCFA77
:10278000FF2000040C490A6882430A60A805F84942
:10279000086001A93F20088005940494074803902D
:1027A0000294074C2046FFF7DFFB20688021884316
:1027B000206006B0B0BDC04614E400E0E803F0FFBE
:1027C0000048014070B586B0002401940125E8025C
:1027D000FFF7A2FAFF200102174A13688B43136028
:1027E0006903E34B19600004116881431160A80379
:1027F000186001A90F250D8005940494C72003904B
:10280000102602960E4C2046FFF7AEFB2168802072
:1028100001432160A168654A0A40A26061683143B2
:10282000602291436160290562688A436260A16801
:102830000143A16006B070BD0CE400E000E100E0DF
:10284000002C0140F0B59BB016AD14212846FDF7D1
:10285000DBFE002715971497139752480168022250
:1028600005921143016007212980006810400890FB
:102870001997C72018906020179008984A4E304644
:102880002946FFF771FB30688021069108433060CC
:10289000B06846490140B160B0690821029108431F
:1028A000B0610F97109711971297702003900E90B8
:1028B00001250EAA04923E4B3046294607959847BB
:1028C0003C4928468847E9020191B0690843B06154
:1028D000102430462146049D2A46354B9847204611
:1028E00034498847F06902990843F0610798040267
:1028F000304621462A462E4B984720462D49884788
:10290000F06901990843F061079D2C033046214688
:10291000049A274B9847204626498847B06826499D
:102920000140B160B06825490140881DB060F06881
:102930004024A043F060A803F1688143F16070680F
:10294000039908437060B06806998843B0602846D0
:10295000FFF74CFA059E3046FFF748FA0D950C97A5
:102960000B9708A8D0C00520040708AE144A2046DB
:10297000314690470D950C970B970A97059D099541
:1029800006980890204631460D4A904707980D90CA
:102990000C970B9708A9A1C16D483146084A90478A
:1029A0001BB0F0BD3C10024000040040F8BFFEFF29
:1029B00059200008E51F00088FFFCFFFF8FFFEFF3A
:1029C000351D0008F0B591B06048016A03229143BB
:1029D0000162012102918903C2680A43C260C26890
:1029E0000A400992099901680224214301600068A4
:1029F00020400990049400270597069707970897A9
:102A00000998802001900390514E03AD304629462D
:102A1000FFF790F9059704940697079708974024C5
:102A2000039430462946FFF785F94A4B186832214E
:102A300001430D208143196047480168474A11400E
:102A400001600168464A1140029A520389180160E8
:102A50002021CD43016829400160E14302680A401A
:102A600002600268019C2243026002683D4E3240CF
:102A7000026002683C4E324002605A6833261643B8
:102A80000C2296435E604369344E334010334361F9
:102A90004369334E3340436143692B40436143698B
:102AA0000B40436141692143416141692D4B19400C
:102AB000416141692C4B19404161FF2000062B49BF
:102AC0000B6883430B60029DE80629490860109754
:102AD0000F970E920D970C970B97E12000030A9029
:102AE0000997244C09A92046FFF720FCEFF310803A
:102AF00085F3108807214A07A3689343A36080F3F6
:102B00001088EFF310802B4685F310884906A268E1
:102B10008A43A26080F3108868072A4621688143AF
:102B200021600920C002616881436160A0682A2198
:102B30008843A060206828432060E0698002FCD5BB
:102B4000E0694002F9D511B0F0BDC0463410024032
:102B5000000400500808024030000240EFBFFFFFB1
:102B6000FFCFFFFFFFFCFFFFFFF3FFFF18E400E0D4
:102B700000E100E00038014010B50446C16A884712
:102B8000608BE18A081AA08301B2E06882689047EE
:102B9000208480B210BD10B50446C08BA18B081AEA
:102BA000608401B2206982689047A084A18BE18390
:102BB00080B210BD41837047F8B504464068A168F3
:102BC000816220680325184E2946324600F044F9F8
:102BD00020756068A16881618162206804213246A5
:102BE00000F03AF960756068A1688161607D217DBF
:102BF000090209188AB200231E46102B06D0174678
:102C0000DF40FF0700D0761C5B1CF6E7F20707D118
:102C100001222276022210406076A943E182F8BDAB
:102C200000202076F8BDC046FFFF0000F0B585B05B
:102C3000039245688468CA0361004910204C0C4027
:102C4000029505604460826001462C31012B01D160
:102C5000A24203DC002B07D1A24205DA0123DB07E5
:102C60005A400192826000E00192034624334D787D
:102C7000AD005D196D8804958E78B2009D520F7875
:102C800003253D430D700C21714347180299F960EB
:102C90009818039D4580601A0499FDF7C1FC06460B
:102CA00038610198001BACB22146FDF7B9FC801BCE
:102CB00004990919FDF7B4FC786105B0F0BDC04670
:102CC0000080FFFFB0B504462C20205C800702D4B2
:102CD000A068C00B20E025462C35228E501C208693
:102CE0006978E36B204698476A7891006118C98C2F
:102CF000238E8B4210D32978CB0704D16268A36856
:102D00000CC4FD2206E0AA7000232386012393430E
:102D10006B70FE221140297000B2B0BD10B50C23BB
:102D20004B43C118CB680C694969514309192D24DB
:102D3000045DA4000019808C80184843C018C00BA3
:102D400000B210BD2D21002242540349416281622C
:102D50002D3001214170704701000100FEE70000A5
:102D6000F8B50446808C471A39B2A069124DA847BD
:102D700000902620215EE069A84706462820215EB3
:102D8000206AA847E18CE78421850099711808180A
:102D9000E062216B08182063A08601B2E28A13B2B8
:102DA000994204DC1422A25E914202DA92B2A28617
:102DB000104600B2F8BDC04649340008F8B500938B
:102DC00016460446002787840F4D0846A847A06092
:102DD0003046A847E0600098A84720614100A268FB
:102DE000E368891849421218D218A261E161206291
:102DF000079800F003FBE082069800F0FFFAE76214
:102E0000A0822785E784F8BD1534000881847047C7
:102E10007047000010B53C4CA068382101400D48B7
:102E2000082916D0102910D1E168E1684904490E3B
:102E30004843E1684906490F491CFDF7E7FBE16893
:102E4000490F491CFDF7E2FB10BD21688904490FB9
:102E5000C84010BD0024F40082689207FCD501220E
:102E6000D20309021143818181680906FCD481687B
:102E7000C907FCD0C06880B2704770477047000037
:102E800070B5204A1068022108430523984310605A
:102E9000146807200440022CFAD1012425021A4AA2
:102EA00016682E43166015686D05FCD5D568174E5B
:102EB0002E40174D7519D560250616682E431660ED
:102EC0002407D5682543D5601468A401FCD50F24D8
:102ED00024029568A543956094680C439C439460D4
:102EE000916838230B40102BFAD10003916881437D
:102EF0009160084C2046FEF787FF2046FFF72EF82A
:102F000070BDC04600200240001002408C80FF1FB0
:102F1000121000200090D0037047000004480168A0
:102F2000012211430160D103426C0A43426470479D
:102F30000048014005480168C90706D004490A68ED
:102F4000521C0A600121C9430160704710480140CA
:102F50006C01002010B5074C2068C00709D06069DB
:102F6000054800680549086000F05EF90120C0438B
:102F7000206010BD102C014024480140C8010020F1
:102F80007047000010B515490A68012002430A6025
:102F90000A68102313430B6002020B6813430B6093
:102FA00002030B6813430B600B46203B1C68044371
:102FB0001C60C3034C6A1C434C6200244C618C614E
:102FC000CC6103240C6206490C6A14430C620A6843
:102FD00002430A60486C1843486410BD2004004056
:102FE000002C0140F8B5154E3068C006464D1AD584
:102FF0001020706028680127B843286028462C38C4
:103000007902016068684042C1B2414C204600F03C
:10301000F9F8EC6068683F490140380208186860B8
:103020002868384328603068400605D54020706025
:103030006869012188436861F8BDC0461C380140B9
:10304000F8B5304A104624302F4DA8602F4E306816
:10305000322303430D20834333602D48E8606C68BE
:103060002C4804400123190264186C60EFF31087A8
:1030700083F31088906840242043906087F3108881
:1030800028681843286010462830E86170683327A4
:1030900007430C20874377601F482862A8691D4EAC
:1030A00030404018A861EFF3108083F310889668D1
:1030B00080273743976080F3108810201062EFF369
:1030C000108683F3108817680743176086F310880B
:1030D000EFF3108083F3108816682643166080F3A0
:1030E0001088EFF3108083F3108894681C43946079
:1030F00080F31088686918436861F4310846FFF767
:1031000093F9F8BD00380140300002400808024041
:10311000D00200200000FFFF04000020FEE780B581
:1031200000F09AFD80BD0000B0B501214A0382186D
:1031300013B2002B01D50B4A821810B2800940004F
:103140002E4B1C180225645F9206520C5443C9038F
:10315000891A185E48432A4901400819000C4000AA
:1031600000B2B0BD00A0FFFFF8B514460D460646FC
:103170000B4F002C11D001CE4721090600F0D8FDDD
:10318000FDF728FB0549884200DC0448B84200DB13
:1031900038462880641EAD1CEBE7F8BD0080FFFFB9
:1031A000FF7F000070B514460D460646002C0BD07C
:1031B0000020305EFDF758FB0721C90600F0B8FD7E
:1031C00001C5641EB61CF1E770BD000010B50121F9
:1031D000C9038206520C891A4004C00D4000074BF7
:1031E0001C5E4C430649214018180223C05E504320
:1031F0000818000C400000B210BDC046F83E0008A0
:103200000000FF7F10B5017855290BD14178302996
:1032100008D179490B685C6DC11C8078C01EC2B2B0
:103220001846A04710BDC04680B573480068816C41
:10323000884780BDFEB50446C1808280438058081F
:10324000FFF7C4FF074660884008FFF76DFF01469F
:1032500002900625605F464A904701900426A05FD1
:103260003946434A90470199081A2081605F3946E0
:103270003F4FB8470546A05F0299B8473E46401900
:103280006082608100B201218903B84705460820A9
:10329000205E1949B8474019A0821221615E421A86
:1032A000E28212B200B2002801DC032300E0022314
:1032B000002A00DD5B1E002901D507256B4023761F
:1032C0005B1E042B10D8C0467B441B795B009F44D7
:1032D00002060B020600A081891AE18108E0E18163
:1032E0001018A081084603E0A2815242E2814018F2
:1032F00040422082FEBDC046D96E0000018070476A
:103300001C4800210160416081607047FEB50C4699
:1033100005460026815F0C20285E154A90470194DF
:10332000610048430F46001400194010C721029164
:10333000081A10490860A95F0E20285E0C4A9047C1
:103340003C4678430014019FC01940100299081AA6
:1033500008494860A95F1020285E054A90476043ED
:103360000014C01940100299081A02498860FEBD75
:10337000413400083404004080B500F06DFC80BD8D
:1033800082B01B48416801221143416041681140ED
:1033900000910099110702680A4302600068084022
:1033A00001900198FF20000612490A688243032019
:1033B000800710180860FFF763FDFFF73BF9FFF780
:1033C00019F9FFF7D5F9FFF7FDF9FFF73BFAFFF71A
:1033D000F9FAFFF755F8FFF76BF9FEF727FC064CF3
:1033E000206805860120FFF71FF86D1CF8E7C0462E
:1033F0003C10024020ED00E0CC0100201CB5019003
:1034000001A86C4601222146FFF7AEFE0020205E97
:103410001CBD00000146C00DC2B208480B46034067
:103420001818401C1346873B03D887239A1AD040AC
:1034300000E09840002900D540427047FFFF7F0020
:103440004843C00B00B2704710B50C460246C9177E
:10345000C3172046FCF714FF4904C00B401810BDE9
:10346000E0B501AB1880694601221846FFF79AFEC5
:1034700000988CBDB0B53420FCF7ABFE04460028A4
:1034800016D001208502284600F04EF8206028461C
:1034900000F04AF81549164AE26221631549616253
:1034A0006060204608300221FEF71AFB12A000E0FF
:1034B00002A0FDF775F82046B0BDC0465741524EF8
:1034C0003A2043757272656E745F53656E736F72E6
:1034D00020696E697469616C697A6174696F6E20C4
:1034E0006661696C65642E0D00000000491B0008D0
:1034F000E91B0008E11B0008494E464F3A2043757E
:103500007272656E745F53656E736F7220696E6957
:103510007469616C697A6174696F6E207375636335
:1035200065656465642E0D00B0B505460C20FCF79A
:1035300050FE0446002808D0124813496160A0607C
:1035400000206080258011A000E002A0FDF728F88F
:103550002046B0BD5741524E3A204C50465F436F13
:103560006E74726F6C6C657220696E697469616CDF
:10357000697A6174696F6E206661696C65642E0D8D
:1035800000000000512400087D240008494E464FE9
:103590003A204C50465F436F6E74726F6C6C65726C
:1035A00020696E697469616C697A6174696F6E20F3
:1035B0007375636365656465642E0D00F8B5164622
:1035C0000F4605463820FCF704FE044600281AD0B2
:1035D000A0C42660012046033046083CFFF7A4FF44
:1035E00020613046FFF7A0FF1549164A164B174ECB
:1035F000A662E36222636163E060286840210143C0
:10360000296013A000E002A0FCF7CAFF2046F8BD25
:103610005741524E3A204D61676E657469635F533E
:10362000656E736F7220696E697469616C697A6125
:1036300074696F6E206661696C65642E0D00000010
:10364000972B0008792B0008B92B0008B52B000830
:10365000494E464F3A204D61676E657469635F530A
:10366000656E736F7220696E697469616C697A61E5
:1036700074696F6E207375636365656465642E0D90
:1036800000000000B0B54420FCF7A3FD044600286C
:1036900012D020462D301649164A174B174D656338
:1036A000A363E26321640121417000210170144889
:1036B0006062A06213A000E002A0FCF771FF204648
:1036C000B0BDC0465741524E3A204E495F436F6EDF
:1036D00074726F6C6C657220696E697469616C6973
:1036E0007A6174696F6E206661696C65642E0D0085
:1036F000C52C00081D2D00082D2C0008452D0008A4
:1037000001000100494E464F3A204E495F436F6E1B
:1037100074726F6C6C657220696E697469616C6932
:103720007A6174696F6E207375636365656465643F
:103730002E0D000010B54420FCF74BFD0446002878
:1037400009D013481349144AA263E163206400209E
:10375000206312A000E002A0FCF722FF204610BD6B
:103760005741524E3A205049445F436F6E74726F16
:103770006C6C657220696E697469616C697A6174D8
:10378000696F6E206661696C65642E0D0000000033
:103790000D2E0008612D0008BD2D0008494E464F32
:1037A0003A205049445F436F6E74726F6C6C65725F
:1037B00020696E697469616C697A6174696F6E20E1
:1037C0007375636365656465642E0D00F8B55820F4
:1037D000FCF7FFFC044600282ED0052001072448F2
:1037E0000122FFF7EBFEA060FFF744FEE0602148F6
:1037F00000F068F86060204DA8472061A84760612C
:10380000A847A061A847E061A8472062FFF73AFFF8
:103810001A491B4A1B4B1C4D60621C481C4E1D4F15
:10382000E56323646764A264E164266560652046FD
:1038300000F0ECF818A000E002A0FCF7B1FE204672
:10384000F8BDC0465741524E3A20504D534D5F4D42
:103850006F746F7220696E697469616C697A6174E2
:10386000696F6E206661696C65642E0D0000000052
:1038700000300140FF7F0000353700087D39000827
:1038800065390008493C00080D3A0008293B00084A
:103890006D3B00082D3C0008494E464F3A20504DE4
:1038A000534D5F4D6F746F7220696E697469616CFE
:1038B000697A6174696F6E207375636365656465A9
:1038C000642E0D00B0B505462C20FCF782FC0446A2
:1038D00000280CD013481449144A154BE3612262A6
:1038E0006162A0622580FFF74DFB12A000E002A0FC
:1038F000FCF756FE2046B0BD5741524E3A20535673
:1039000050574D5F44726976657220696E697469BB
:10391000616C697A6174696F6E206661696C656457
:103920002E0D00000D330008013300083532000869
:10393000FD320008494E464F3A20535650574D5FCE
:1039400044726976657220696E697469616C697A1E
:103950006174696F6E207375636365656465642E59
:103960000D00000080B52821415CFE220A40022A99
:1039700003D13021415EC26C904780BD70B50D46C9
:103980000446416C8847E069026C294690471D4E09
:103990007078411C717004281BD3A068818B0020B3
:1039A0007070681A00B201221303984201DD100200
:1039B00009E0154A904202DAFF20000203E0E069C4
:1039C000C26B09B290476086A269136C01B21046BF
:1039D00098473078411C317004280ED30020307095
:1039E000A569EE6BA068416B884701B22846B047D5
:1039F000014620876069026C9047216D2046884708
:103A000070BDC0467001002000F0FFFFF0B585B02A
:103A100004464068416A88470A20FEF705FDE068D1
:103A200042890189436A9847A068826A3049904771
:103A300001200490FEF7F8FCA068016B8847039012
:103A40002069856B2B4901912B4E00962B492C4AFE
:103A500000273B46A8476069856B00962549019180
:103A60002649274A3B46A84725692E6C25493846F2
:103A7000884701462846B04765692E6C224821498F
:103A8000884701462846B047A069856B3F210A0652
:103A90000292BF210906009101921C491C4A3B4633
:103AA000A847A5692E6C1B48164988470146284639
:103AB000B047E069856B1849019118490091184A8F
:103AC000184B0299A847E069026C39469047606A32
:103AD000416B88472825635D049A1340039801B21F
:103AE000606A866BB0470220605505B0F0BDC046E5
:103AF000144100003333333F333333BFCDCC8C3DDF
:103B00001517E03CFD3300088FC2753C66FC3E4152
:103B1000A415523F0AD723BCCDCC4C3DCDCC4CBDD7
:103B20000AD7A33B0000A0417FB5044608782822AD
:103B3000A054FE220240022A12D126462836481CF2
:103B40006D462B1D07A12A46FCF764FC04202A5E63
:103B50000020295E307801230340606A846BA0470F
:103B60007FBDC0462578202578000000F0B585B0DF
:103B70000446C16800691E22895EC26B9047E086D8
:103B8000E0682025415F6069C26B90470246A086CD
:103B90003620215E638D6068066AB0476068826A7D
:103BA000C3219047E068405F174DA8470490A06884
:103BB0001C21405EA847FCF7E3FD06460F46A068BF
:103BC0002421405EA847FCF7DBFD04460D4604981F
:103BD000FCF7D6FD02460B4600960197029403952A
:103BE0000A4C0BA12046FCF763FB0E49CC604A68E7
:103BF0000D4B1340C0B218184860086801220243F8
:103C00000A6005B0F0BDC04661340008D001002054
:103C100024252E326620252E326620252E35663B41
:103C200000000000440002400000FFFF10B5044601
:103C30008068016B884707214143E185618589B22E
:103C4000E068026B904710BD0248016801220A43F8
:103C5000026070470C2C014003490A681206FCD52B
:103C6000C2B2CA607047C0461C380140F8B5040CA7
:103C70008BB2264682B25E43104658430D0C370C79
:103C8000360400218019164679416E43370C3604FC
:103C90008019264679416E438919F8BD4900CA0248
:103CA0000243100000D004204A0D01D0012210432D
:103CB000044A490D914201D102210843012800D153
:103CC00005207047FF07000030380A2801D2012084
:103CD000704700207047000010B500290AD008780E
:103CE000002807D005487844FDF79CFE002801D045
:103CF000002010BD0248784410BD000036060000C8
:103D00002E06000010B500290AD00878002807D038
:103D100005487844FDF786FE002801D0002010BD3C
:103D20000248784410BD0000260600001E06000070
:103D300070B5420064414B005C41120E39D01B0E3D
:103D400038D0FF2A3CD0FF2B3AD0D2187F3A40021D
:103D50004902400A490A4518ED0106004E43000A8F
:103D6000090A48430104731A4019190C4318990FA2
:103D700004D05B08012149075B1A521CD80904D3FF
:103D8000401CF50301D19D0607D0FF2A08D2D505B6
:103D900006D0E4072043401970BD0125A843F4E78D
:103DA000002A01DCE00770BD2402FF202043C0058B
:103DB00070BD1B0EFF2A03D0FF2B01D0E00770BDA2
:103DC000FF2636064500B54206D84D00B54203D859
:103DD000D218FF2A00D0E7E7004870BD0000C07F7E
:103DE00003B402487844844603BC6047D9CCFFFF43
:103DF00004000008000000000000000200010000B4
:103E00001000000002400000000000A000000000C0
:103E100005400000000000C8000000000C40000049
:103E20000000409C00000000194000000020BCBEC3
:103E30000000000034400000BFC91B8E00000004D9
:103E4000B5400000504BCFD06607E2CF0100000024
:103E50006C4100003E8251AADFEEA7340100000051
:103E6000D9420000DCB5A0E23A301F97FFFFFFFF08
:103E7000B4450000FD25A0C8E9A3C14FFFFFFFFF27
:103E8000FF3F00000000008000000000FF3F000036
:103E900000000080000000000000000000000000A2
:103EA0000000000000000000000000000000000012
:103EB00000000000000000000100000002000000FF
:103EC00003000000040000000600000007000000DE
:103ED00008000000090000000000000000000000D1
:103EE00000000000000000000100000002000000CF
:103EF0000300000004000000000092012403B60447
:103F00004806D9076B09FB0A8C0C1C0EAB0F3A1143
:103F1000C8125514E2156E17F918831A0C1C931D5C
:103F20001A1F9F202422A7232825A8262728A42952
:103F30001F2B992C112E872FFC306E32DF334E351C
:103F4000BA3625388D39F33A573CB83D173F74409F
:103F5000CE4126437B44CD451D476A48B449FB4AC0
:103F6000404C814DC04EFB4F345169529B53CA5453
:103F7000F6551E5743586459825A9D5BB45CC85D20
:103F8000D75EE45FEC60F161F262EF63E964DE65E5
:103F9000D066BD67A7688C696E6A4B6B246CF96C40
:103FA000CA6D976E5F6F2370E3709E7155720873D0
:103FB000B67360740575A6754276D9766C77FB7713
:103FC00085780A798A79067A7D7AEF7A5D7BC67B75
:103FD0002A7C897CE47C3A7D8A7DD67D1E7E607E4B
:103FE0009D7ED67E0A7F387F627F877FA77FC27FD4
:103FF000D97FEA7FF67FFE7FFF7FFE7FF67FEA7F35
:10400000D97FC27FA77F877F627F387F0A7FD67E76
:104010009D7E607E1E7ED67D8A7D3A7DE47C897C95
:104020002A7CC67B5D7BEF7A7D7A067A8A790A796B
:104030008578FB776C77D9764276A67505756074BE
:10404000B673087355729E71E37023705F6F976E3D
:10405000CA6DF96C246C4B6B6E6A8C69A768BD677E
:10406000D066DE65E964EF63F262F161EC60E45F03
:10407000D75EC85DB45C9D5B825A645943581E5735
:10408000F655CA549B5369523451FB4FC04E814D73
:10409000404CFB4AB4496A481D47CD457B44264302
:1040A000CE417440173FB83D573CF33A8D3925381F
:1040B000BA364E35DF336E32FC30872F112E992CF5
:1040C0001F2BA4292728A8262825A72324229F20A0
:1040D0001A1F931D0C1C831AF9186E17E21555143C
:1040E000C8123A11AB0F1C0E8C0CFB0A6B09D907D6
:1040F0004806B6042403920100006EFEDCFC4AFB75
:10410000B8F927F895F605F574F3E4F155F0C6EE25
:1041100038EDABEB1EEA92E807E77DE5F4E36DE2EC
:10412000E6E061DFDCDD59DCD8DA58D9D9D75CD6D6
:10413000E1D467D3EFD179D004CF92CD21CCB2CAEC
:1041400046C9DBC773C60DC5A9C348C2E9C08CBF49
:1041500032BEDABC85BB33BAE3B896B74CB605B508
:10416000C0B37FB240B105B0CCAE97AD65AC36AB55
:104170000AAAE2A8BDA79CA67EA563A44CA338A268
:1041800029A11CA0149F0F9E0E9D119C179B229A83
:1041900030994398599774969295B594DC93079308
:1041A00036926991A190DD8F1D8F628EAB8DF88C58
:1041B0004A8CA08BFB8A5A8ABE89278994880588F5
:1041C0007B87F6867686FA8583851185A3843A8473
:1041D000D68377831C83C68276822A82E281A0817D
:1041E00063812A81F680C8809E80798059803E80D4
:1041F000278016800A800280008002800A80168054
:1042000027803E80598079809E80C880F6802A81F0
:104210006381A081E2812A827682C6821C837783B1
:10422000D6833A84A38411858385FA857686F686BB
:104230007B87058894882789BE895A8AFB8AA08B48
:104240004A8CF88CAB8D628E1D8FDD8FA1906991A9
:1042500036920793DC93B594929574965997439848
:104260003099229A179B119C0E9D0F9E149F1CA0A3
:1042700029A138A24CA363A47EA59CA6BDA7E2A851
:104280000AAA36AB65AC97ADCCAE05B040B17FB2F3
:10429000C0B305B54CB696B7E3B833BA85BBDABC44
:1042A00032BE8CBFE9C048C2A9C30DC573C6DBC707
:1042B00046C9B2CA21CC92CD04CF79D0EFD167D311
:1042C000E1D45CD6D9D758D9D8DA59DCDCDD61DF46
:1042D000E6E06DE2F4E37DE507E792E81EEAABEB8A
:1042E00038EDC6EE55F0E4F174F305F595F627F8D0
:1042F000B8F94AFBDCFC6EFE0000000048440008F0
:1043000000000020080100000401000850450008DA
:1043100008010020C80E0000200100081C00000059
:1043200043000000F8FFFFFF0C0000000E0000003B
:104330000F0000002E0000001001000043000000EC
:10434000F8FFFFFF004040404040404040404141B6
:10435000414141404040404040404040404040405A
:1043600040404040400502020202020202020202F4
:1043700002020202022020202020202020202002F1
:104380000202020202029090909090901010101081
:10439000101010101010101010101010101010101D
:1043A00002020202020288888888888808080808B1
:1043B000080808080808080808080808080808087D
:1043C00002020202400000000000000000000000A5
:1043D00000000000000000000000000000000000DD
:1043E00000000000000000000000000000000000CD
:1043F00000000000000000000000000000000000BD
:1044000000000000000000000000000000000000AC
:10441000000000000000000000000000000000009C
:10442000000000000000000000000000000000008C
:10443000000000000000000000000000000000007C
:1044400000000000000000000024F4007573617299
:1044500074204F4B0D0A0000000000000000000017
:10446000000000000000000000000000000000004C
:10447000000000000000000000000000000000003C
:10448000000000000000000000000000000000002C
:10449000000000000000000000000000000000001C
:1044A000000000000000000000000000000000000C
:1044B00000000000000000000000000000000000FC
:1044C00000000000000000000000000000000000EC
:1044D00000000000000000000000000000000000DC
:1044E00000000000000000000000000000000000CC
:1044F00000000000000000000000000000000000BC
:1045000000000000000000000000000000000000AB
:10451000000000000000000000000000000000009B
:10452000000000000000000000000000000000008B
:10453000000000000000000000000000000000007B
:10454000000000000000000000000000000000006B
:04000005080000C12E
:00000001FF
